:020000040800F2
:10000000FC4F00201D29000865290008652900080B
:10001000652900086529000865290008000000001E
:10002000000000000000000000000000652900083A
:1000300065290008000000006529000865290008FE
:100040006529000865290008652900086529000858
:100050006529000865290008652900086529000848
:100060006529000865290008652900086529000838
:100070006529000865290008652900086529000828
:100080006529000865290008652900083102000873
:100090003B02000865290008652900086529000859
:1000A00065290008652900086529000865290008F8
:1000B00065290008652900086529000865290008E8
:1000C00065290008652900086529000865290008D8
:1000D00065290008652900086529000865290008C8
:1000E0006529000865290008450200080000000095
:1000F0000000000000000000000000000000000000
:0C01000000000000000000005FF808F1A3
:10010C000A4B1B6803F16043013BB3F5A04F08D2C7
:10011C00064B586800F17843A3F58043B3F5404F84
:10012C0001D30020704700F0010070470040000828
:10013C00054B1B6913F0800F05D0034B034A5A6023
:10014C0002F188325A607047002002402301674553
:10015C00074AD36813F0010FFBD1054BDA68342141
:10016C00D96012F0140F0CBF01200020704700BFA3
:10017C000020024038B504460E4D2B6943F00203B3
:10018C002B6168612B6943F040032B61FFF7E0FFA3
:10019C002B6923F002032B6150B104F580622368B4
:1001AC00B3F1FF3F03D104349442F8D100E00020B6
:1001BC0038BD00BF002002402DE9F04180461746B3
:1001CC00174A136943F0010313614E1C002505E027
:1001DC0038F8053002350236A3421ED1AF421AD987
:1001EC0016F8014C6B1C9F4286BF96F900301B021F
:1001FC006FF0FF031C43A4B228F80540FFF7A8FFDB
:10020C0003460028E4D106490A6922F001020A617A
:10021C001846BDE8F0810123F5E70023F3E700BFA2
:10022C000020024008B5002001F052FF08BD08B5BF
:10023C00002001F04DFF08BD08B5002001F048FF7B
:10024C0008BD322070470000F8B51E4601F500309D
:10025C001030840203EB80201F4B984220D80F46AD
:10026C001546FFF765FF1D4B9C4221D27FB94FF419
:10027C008062FF211A4802F070FB1A4B01221A60AF
:10028C00194B00221A601948FFF774FF60B132460F
:10029C002946134802F08EFB002000F06DFBF8BDE0
:1002AC00082000F069FBFAE7042000F065FBF6E794
:1002BC002046FFF75FFF58B1324629462046FFF72C
:1002CC007BFF00280CBF0720002000F055FBE6E761
:1002DC00042000F051FBE2E7000001080044000894
:1002EC0028000020240000202000002000400008EE
:1002FC0008B5FFF71DFF0F4B1B689BB14FF48062D5
:10030C000D490E48FFF758FF60B10A4B00221A60E6
:10031C00FFF7F6FE50B10A4B01221A60002000F0E4
:10032C002BFB02E0072000F027FB08BD0A2000F0A1
:10033C0023FBFAE7240000202800002000400008DE
:10034C0020000020014B00221A607047240000207E
:10035C00034B1B6813B1034B01221A60704700BF9B
:10036C00200000201C000020034B1B6813B1034B22
:10037C0001221A60704700BF200000201C000020E2
:10038C0070B586B04D4BD3F8FC2F0021C3F8FC1F81
:10039C004B4B9A4221D04B4B9A6942F008029A611E
:1003AC009B6903F008030393039B0491049B632B49
:1003BC0005DC049B01330493049B632BF9DD424B56
:1003CC009968404A936923F00803936111F0040F74
:1003DC0003D1FFF795FE002866D102F0DFF9394B07
:1003EC00DA6942F40002DA61DA6902F4000202927C
:1003FC00029A9A6942F010029A619B6903F0100309
:10040C000193019B314B5968314B93FAA3F3B3FA27
:10041C0083F39B000F2202FA03F321EA03012C4B16
:10042C0093FAA3F3B3FA83F328489B00012202FA50
:10043C0003F30B4343604FF40053436102F0FEF9A6
:10044C00244B1B88ADF8143005A9002000F0BCFA31
:10045C0000264FF0FF35204C3146284601F028F895
:10046C002368002BF8D000230093009A1B4B9A4270
:10047C000DD800264FF0FF351C463146284601F0BA
:10048C0017F8009B01330093009BA342F5D9BFF3EF
:10049C004F8F1349CA6802F4E062124B1343CB60CE
:1004AC00BFF34F8F00BFFDE70F4B0D4A93601A68E7
:1004BC005B6882F308881847FEE700BF0040002005
:1004CC00401007B000100240000C01400010014029
:1004DC0020002004DC2900081C0000207FA9030058
:1004EC0000ED00E00400FA05004000080146027827
:1004FC0062B1DFF81CC001232CF8022FD8B211F81E
:10050C00012F22B10133192BF6D1704710467047D9
:10051C002804002000487047082B0008004870474A
:10052C00EC2A000800487047C82A0008012914D199
:10053C0008B59446137803F06003402B01D00020DB
:10054C0008BD5378012BFAD19388072BF7D1A2233E
:10055C00034A614600F032FFF2E70120704700BF0A
:10056C00242A000808B504283CD8DFE800F0030F63
:10057C00141936001C4B40F209425A8001231A48C8
:10058C0001335B0043F44073038008BD1748FFF749
:10059C00ADFF0346F3E71648FFF7A8FF0346EEE767
:1005AC0011480021DFF84CC0C1F3460303F100539E
:1005BC00A3F5805393F8E83701F0010282F00102B1
:1005CC009200134103F00F031CF8033020F8023F94
:1005DC0001311829E8D11823D1E70748FFF786FF26
:1005EC000346CCE70020D0E728040020E0290008CF
:1005FC00EC290008102A0008002A0008034B0222EC
:10060C009A700022DA701A71704700BF5C080020E3
:10061C0000B583B0DDF810C08DF800308DF801C046
:10062C004FEA1C238DF802304FEA1C4C8DF803C0A6
:10063C008DF8042000238DF8053006236A4600F05F
:10064C00BDFE03B000BD00207047000008B5034B91
:10065C0000221A705A70FFF7D1FF08BD5C08002009
:10066C0008B50020FFF7F2FF08BD0120704700001D
:10067C008B79012B02D1CB79022B01D00020704752
:10068C0010B58C780020034691F807C0BCF1020F1E
:10069C0016D19A4221D991F802C0A44526D191F8DD
:1006AC0003E05FFA80FCE64529D191F800C0634471
:1006BC009BB26144013091F806C0BCF1010FE3D04C
:1006CC004A78212A24D04FF0E023D3F8F03D13F0E0
:1006DC00010F00D000BE002010BD4FF0E023D3F876
:1006EC00F03D13F0010FF6D000BEF4E74FF0E0231D
:1006FC00D3F8F03D13F0010FEDD000BEEBE74FF057
:10070C00E023D3F8F03D13F0010FE4D000BEE2E794
:10071C00093398B28A78084B1A70B1F80530B3F5E2
:10072C00806FD9D94FF0E023D3F8F03D13F0010FCF
:10073C00D2D000BED0E700BF5C08002030B583B03B
:10074C001446137803F01F02012A04D000231C4620
:10075C00204603B030BD054613F060031DD163780D
:10076C000A2B11D00B2BF1D1012902D001231C46ED
:10077C00EEE762887C4B5A70FFF740FF2146284613
:10078C0000F0CCFD0446E3E70129EFD10123774AC1
:10079C00214600F013FE0446DAE7202BD6D163780D
:1007AC00062BD3D8DFE803F0044930780F1820006B
:1007BC00012904D00329D9D1FFF7D6FDD6E721466C
:1007CC0000F0ACFDD2E70129D0D1FFF717FF21468D
:1007DC00284600F0A3FDC9E70129C7D10123644ACB
:1007EC00214600F0EBFDC1E7012906D00329BDD15C
:1007FC005D4B5878FFF7A6FDB8E7FFF7FFFE2146E3
:10080C00284600F08BFDB1E70129AFD1564B1B7880
:10081C0013F0020F9AD0E388B3F5806F96D8554A3F
:10082C00618851484078FFF70EFF0346514A214634
:10083C00284600F0C3FD04468AE7012996D14A4BAD
:10084C001B7813F0010F81D0474B9B78022B02D001
:10085C00052B7FF47BAF2146E388B3F5806F3FF621
:10086C0075AF414B01221A716288DA80E2881A81D5
:10087C00E3884BB13C4A032191703E4A21462846FD
:10088C0000F09CFD044663E7374B06229A7028461D
:10089C0000F044FD04465BE7334B9A78032A0DD0F5
:1008AC00062A37D001297FF461AF002300932E4B29
:1008BC00DB782146FFF7ACFE044649E701290AD054
:1008CC0003297FF453AF284B1B791C46C3B9264B25
:1008DC0005229A704AE7244B1B7953B91846052216
:1008EC000090214BDB7821462846FFF791FE044609
:1008FC002EE704211C4B5878FFF7A3FC0422EFE7EA
:10090C0019480423837003891A4AC1884078FFF779
:10091C009BFC1DE701290AD003297FF427AF124B5A
:10092C001B791C46C3B9104B02229A701EE70E4B62
:10093C001B7953B91846022200900B4BDB782146E9
:10094C002846FFF765FE044602E70721064B587858
:10095C00FFF777FC0722EFE7034B07229A705878D2
:10096C00FFF7C6FCF4E600BF5C0800205D08002021
:10097C005E0800205C0400200E4B00221A71024617
:10098C0090B99B78042B0BD0072B11D1094B1B78FA
:10099C0013F0040F0CBF08220622064B9A70704706
:1009AC00044B03229A707047024B0A219970D8703D
:1009BC00704700BF5C08002070470000014B1860B6
:1009CC00704700BF0000002008B5012807D80B783D
:1009DC002BB10E4A1354012B0BD0012008E04FF021
:1009EC00E023D3F8F03D13F0010F00D000BE00203F
:1009FC0008BD00F099FA0028FAD14FF0E023D3F8A3
:100A0C00F03D13F0010FF3D000BEF1E768080020B1
:100A1C0030B515461C46039BBDF810C09C4463457D
:100A2C0010D3012030BD93F802E00EF00F024FEA14
:100A3C00DE1E01EB420202F80E0093F800E0734454
:100A4C009C45EED993F800E09E44F445E9D393F825
:100A5C0001E0BEF1050FE6D0BEF1040FEDD193F825
:100A6C0003E0BEF1000FE8D193F802E0A64502D2F4
:100A7C0005F80E00E1E74FF0E023D3F8F03D13F05A
:100A8C00010F00D000BE0020CCE703460A4490B210
:100A9C00814202D8B0EB430F02DBA0EB430080B2E3
:100AAC007047002343810381704710B582B0044620
:100ABC007BB193F800C06346624507D3088824F8DD
:100ACC00040B6144D21A92B29A42F7D222B902B004
:100ADC0010BD4FF0020CEEE70023019301A801F0CA
:100AEC0069FFBDF804302380F1E700B583B084467C
:100AFC0008467BB193F800E07346724507D33CF887
:100B0C00041B01807044D21A92B29A42F7D222B9D5
:100B1C0003B000BD4FF0020EEEE7BCF80030ADF8AC
:100B2C00043001A901F046FFF2E72DE9F04F83B044
:100B3C0005460846BDF83060AF88B342A3EB060407
:100B4C00B8BF04EB4704A4B2BCB1A74219D394427A
:100B5C0028BF1446B74203D8F61BB6B2B742FBD92E
:100B6C000D9B002B69D0BB1B9AB22B689919944230
:100B7C000FD80D9B2246FFF798FF204603B0BDE827
:100B8C00F08F9F4294BFDB1BDB199EB26E813C46FB
:100B9C00DDE7E71B37441FFA87FB0D9B1F787B4271
:100BAC00904602EA03060D9B32468A468146FFF7C1
:100BBC007CFF09EB4603994618467A1E43461A40B9
:100BCC0012F0FF0237D0B91A89B2594528BF5946DD
:100BDC00C8B25346334401AF03EB020E3E4613F842
:100BEC0001CB06F801CB7345F9D168B1D5F800C03B
:100BFC000CF1FF33BE180138C0B2604413F8017F0A
:100C0C0006F8017B8342F9D1CEB20D9B324401A987
:100C1C004846FFF74AFF484604305B469B1B9BB295
:100C2C009B46296831445B46002BA6D00D9B5A4647
:100C3C00FFF73BFFA1E72968F5E7BB1B9BB22968CF
:100C4C0031449C4203D8224601F0B4FE95E7994604
:100C5C001A46804601F0AEFEE71BF21992B22968E3
:100C6C004046484401F0A6FE87E730B583B0044601
:100C7C009E460389B0F80AC0CDF804E0CDF800C058
:100C8C00FFF753FF054602466189A088FFF7FDFE7A
:100C9C006081284603B030BD2DE9F04F87B000933A
:100CAC001746002A00F0CA8005468B46B0F808802B
:100CBC0041898379002B31D183888845AEBFA8EB5D
:100CCC000101C1EB4301414489B28B4240F2BA802D
:100CDC005B1A9BB2934228BF13469FB2AE8846451F
:100CEC003FD84446A41BA4B2A642FBD9009A002AC2
:100CFC0000F08B80331B98B22B6819190191B84204
:100D0C0031D313463A465846FFF7EFFE3A46414672
:100D1C00A888FFF7BAFE2881384690E08088904278
:100D2C000DD8171A5B465F44009A002A08BF3B4651
:100D3C009B46002800F0838088460746CEE788450E
:100D4C00AEBFA8EB0103C1EB400343449BB2134479
:100D5C00B3EB400FC2DB821A92B2FFF796FE8046CD
:100D6C00BCE74446C2E7BE1B2644B6B200990C78D9
:100D7C006342824600EA0309CDF80C900B464A46C2
:100D8C0001995846FFF7B1FE0BEB49039C461846F8
:100D9C00631E5246134013F0FF03029307D12968D8
:100DAC00002EB3D0009B3246FFF79FFEAEE71A46EB
:100DBC00E31A9BB2B34228BF3346DCB2A246009B77
:100DCC00224405A9E146FFF790FE4846043005A9E8
:100DDC00019BDDF80CC06344029A8A1811F801CB10
:100DEC0003F801CB9142F9D14CB1002312F801CB9D
:100DFC00296801F803C00133D9B28C42F6D85246A7
:100E0C00B31A9EB229685144CAE7331B9BB22868B7
:100E1C002044BB4204D33A46594601F0CBFD75E75A
:100E2C009A461A46594601F0C5FDBE1BA21992B24C
:100E3C0059465144286801F0BDFD67E7104607B0DC
:100E4C00BDE8F08F0020FAE708B54B6902490B6149
:100E5C000121984708BD00BF7C090020F8B5204B44
:100E6C001B78FF2B22D0054600241E4F1C4E0BE096
:100E7C0013D11D4BDB6828469847337801345A1C34
:100E8C00D2B2E1B28A4211D9E2B29A42F0D204EB68
:100E9C00C4023B6813EB8203ECD14FF0E023D3F890
:100EAC00F03D13F0010F00D000BEF8BD0F4C4C22EA
:100EBC000021204601F051FD4FF0FF33C4F81B30E8
:100ECC00C4F81F30C4F82330C4F82730C4F82B30D2
:100EDC00C4F82F30C4F83330C4F83730E5E700BF1E
:100EEC0030090020340900201C2B00087C0900204C
:100EFC0008B520B1044B187801F0A6FB08BD024BD5
:100F0C00187801F0AFFBF9E7180000207047704724
:100F1C00002070470020704770477047704770473B
:100F2C000346002018707047F8B5364B1B78FF2B22
:100F3C0065D106460F46D1B14C220021324801F052
:100F4C000CFD324B00221A70314C2046FFF7A9FDE4
:100F5C00083C304B1C60304C2046FFF7E1FF2F4B18
:100F6C0018602378FF2B0BD000252C461DE04FF08A
:100F7C00E023D3F8F03D13F0010F28D000BE26E09B
:100F8C004FF0E023D3F8F03D13F0010F1FD000BE5B
:100F9C001DE014D1224B98471F4B1B78013424358C
:100FAC005A1CD2B2E1B28A4214D9E2B29A42F0D2BD
:100FBC001A4B1B685B1902D05B68002BEBD14FF00E
:100FCC00E023D3F8F03D13F0010F00D000BE002455
:100FDC002046F8BD0B4B1E703946304601F04AF8DE
:100FEC00044640B94FF0E023D3F8F03D13F0010F65
:100FFC00EED000BEECE7304601F026FBE8E701241A
:10100C00E6E700BF180000207C09002078090020CA
:10101C000C0000206C08002030090020340900204E
:10102C006D060008F0B585B004460F464378023BC8
:10103C00052B14D8DFE813F00D00060033003C003C
:10104C00C100C6008D4B1A78FF2A51D000258B4E5B
:10105C0043E08B4B00221A755A751A769A75894B98
:10106C001E68002F40F0EF80336800209847002363
:10107C00B288214606F10800FFF70EFE05463368DC
:10108C0001209847002D40F0D7804FF0E023D3F893
:10109C00F03D13F0010F00F0D48000BED1E0784B8E
:1010AC001B7D002B00F0CD80754B01229A75D6E785
:1010BC00734B1B7D002B00F0C480714B00229A7582
:1010CC00CDE7136A13B161682078984732780135FF
:1010DC00531CDBB2E9B28B420AD9EBB29342F5D284
:1010EC0005EBC503684A126812EB8302E9D1EDE700
:1010FC00634B9B7D002B2FD00023614A937501938A
:10110C000293039323788DF8043005238DF8053072
:10111C005C4B1E68002F40F0A88033680020984775
:10112C000023B28801A906F10800FFF7B5FD0546BA
:10113C0033680120984745B94FF0E023D3F8F03DD0
:10114C0013F0010F08D000BE06E03A469DF80510DA
:10115C009DF80400FFF7DAFE494B9B7E13F0010F5C
:10116C006FD023788DF8043003238DF80530636835
:10117C000293444B1D68002F6ED12B6800209847BA
:10118C000023AA8801A905F10800FFF785FD044694
:10119C002B680120984744B94FF0E023D3F8F03D79
:1011AC0013F0010F4DD000BE4BE03A469DF80510F0
:1011BC009DF80400FFF7AAFE43E0344A137801338C
:1011CC0013704CE7017911F00F053FF448AFCE09CD
:1011DC002B4B03EB450303EBD11393F82B30274A2E
:1011EC0012789A427FF63BAF03EBC303264A126890
:1011FC0012EB83023FF433AFD369002B3FF42FAFD4
:10120C001F4B03EB4503334493F83B0000F0FA000B
:10121C0083F83B00D3699C46A36862792078E04749
:10122C0078B9174B03EB4503334493F83B2042F05A
:10123C00050283F83B2012E73A4661782078FFF7E5
:10124C0065FE05B0F0BD0023B288214606F108000A
:10125C00FFF722FD054615E70023AA8801A905F131
:10126C000800FFF719FD044695E70023B28801A991
:10127C0006F10800FFF710FD05465CE73009002079
:10128C007C0900206C08002034090020780900201B
:10129C0030B583B001F00F04C80905461D4800EBBA
:1012AC00440000EBD11090F83B0010F0010F0AD075
:1012BC004FF0E023D3F8F03D13F0010F00D000BE47
:1012CC00002003B030BD134800EB4400284490F8D4
:1012DC003BC04CF0010C80F83BC09DF8180000900E
:1012EC000D48007801F0F0F80028EAD1094B03EB27
:1012FC0044032B4493F83B2002F0FA0283F83B2082
:10130C004FF0E023D3F8F03D13F0010FD9D000BE1D
:10131C00D7E700BF7C0900201800002000B583B07F
:10132C00084BDB8863B1074B197881F0FF0101F0A2
:10133C008001002200921346FFF7AAFF03B000BD04
:10134C008021F6E77C09002030B583B00546194BA7
:10135C009989DA898C1AA4B2402C28BF402493F9BD
:10136C000030002B0CDB914221D0002112480023CD
:10137C000093234602462846FFF78AFF03B030BD90
:10138C0091420FD00B4B98680B4B98420DD034B157
:10139C000028F3D022460146074801F00BFB8021C0
:1013AC000548E4E780210020E1E78021DFE7002108
:1013BC000846DCE77C0900203809002000B583B022
:1013CC001B498A60B1F806C0634528BF63468B8110
:1013DC00BCF1000F19D003B122B1FFF7B5FF58B122
:1013EC0003B000BD4FF0E023D3F8F03D13F0010F34
:1013FC0000D000BE0020F3E74FF0E023D3F8F03D1F
:10140C0013F0010FECD000BEEAE76246CDF800C045
:10141C0063468021FFF73CFF0028E1D14FF0E02329
:10142C00D3F8F03D13F0010FDAD000BED8E700BFBF
:10143C007C09002010B50C46084B187801F06CF8AC
:10144C0004F00F02064B03EB420303EBD41191F8AB
:10145C003B3043F0030381F83B3010BD18000020F3
:10146C007C09002010B50C46084B187801F09EF84A
:10147C0004F00F02064B03EB420303EBD41191F87B
:10148C003B3003F0FC0381F83B3010BD180000200A
:10149C007C09002001F00F02044B03EB420303EB29
:1014AC00D11191F83B00C0F3400070477C0900203B
:1014BC00AE4B1B78FF2B00F02C842DE9F04F8BB03A
:1014CC001024AB4E0025AB4F09E09DF81C00FFF734
:1014DC00C5FC9DF820307B76013C00F0E383D6F808
:1014EC000080D8F80030284698472B46B8F80420DE
:1014FC0007A908F10800FFF7B8FB8146D8F80030BF
:10150C0001209847B9F1000F00F0CC839DF81D30F5
:10151C00013B072B00F2ED8301A252F823F000BF30
:10152C00D71400084D150008EB1C0008B71C000868
:10153C00CD1C00085B150008251B0008DB1C0008EF
:10154C009DF81C00FFF78AFCFFF7E6FCC4E78A4B0A
:10155C001B78002BC0D0884B1A78013A1A701B7874
:10156C00002BB9D1834B01221A75002283F83B2042
:10157C0083F83C209DF81C900AA911E9030083E82C
:10158C0003009A60DA819A811A611B7803F0600378
:10159C00602B21D0402B32D0764A127802F01F02F9
:1015AC00012A00F0EE81022A00F02A82002A40F083
:1015BC00A782202B2ED06F4B5B78092B00F2D781A2
:1015CC00DFE813F0CA01BC01D501AE01D50144001E
:1015DC003E01D5014F005A004FF0E023D3F8F03D07
:1015EC0013F0010F00D000BE00219DF81C0000F08C
:1015FC0093FF80219DF81C0000F08EFF6CE75D4A84
:10160C005E4B136101214846FEF790FF00287FF4E2
:10161C0063AFE9E7574B9B88DAB20F2AE4D813463D
:10162C00544A1344DB7E564A1278934207D203EB9A
:10163C00C303544A116811EB830102D1D4E7D3D10F
:10164C0051494C4A4846FFF7FFFBDFE7DFF824819E
:10165C0098F80210484600F055FF012388F8153021
:10166C003AE744490B7E8DF81A3001230DF11A022A
:10167C004846FFF7A3FE2FE73E4B93F802801B7EF4
:10168C00984508D063B93B4B83F81880B8F1000F2C
:10169C0018D1FFF741FC37494846FFF73FFE1BE7DF
:1016AC000021484600F000FD484600F0EFFFDFF84F
:1016BC00C4A09AF819309B464846FFF7CFFB8AF82E
:1016CC0019B0E0E708F1FF30C0B2FEF727FF034680
:1016DC0010B14278022A14D04FF0E023D3F8F03D39
:1016EC0013F0010F00D000BE224B00221A764FF0EF
:1016FC00E023D3F8F03D13F0010F3FF475AF00BEBB
:10170C0072E71C49C2799211C87D62F30000C8755A
:10171C0003F109015A8813440493CDF81490A3469D
:10172C000C46049BA34240F2858094F80080A044B0
:10173C0043457FD363780B2B6FD0042B06D1049BCE
:10174C001B1B9BB29A460023039338E05C464FF078
:10175C00E023D3F8F03D13F0010FC5D000BEC3E772
:10176C005C4614E012D1084B3CE000BF180000208E
:10177C006C0800207C09002078090020390500083D
:10178C0030090020340900201C2B00085C464FF067
:10179C00E023D3F8F03D13F0010FA5D000BEA3E772
:1017AC005C464FF0E023D3F8F03D13F0010F9BD0D3
:1017BC0000BE99E75C4633E0039B013303939DF82D
:1017CC000C90A34B1A78531CDBB24B4527D94A45D6
:1017DC00C8D99DF80C209F4B1B68242101FB0233B8
:1017EC00002BBDD01B695246214605989847804670
:1017FC000828E1D98245DFD3974A01900094102341
:10180C00D1184846FFF704F90028C9D0A044904BE2
:10181C001B780133DBB24B45CCD9444681E75C469F
:10182C004FF0E023D3F8F03D13F0010F3FF45CAF21
:10183C0000BE59E7DDF814905C46FEF789FD2AE7F7
:10184C00864B5888030AC0B25A1E0E2A00F26281D7
:10185C00DFE812F00F002F004C00600160015A000D
:10186C002F00600160016001600160016001600196
:10187C002300FEF74FFE024628B112237749484653
:10188C00FFF79CFDC2E64FF0E023D3F8F03D13F0D8
:10189C00010F3FF4A9AE00BEA6E6FEF743FE0246DA
:1018AC0000283FF4A1AE43886C494846FFF786FDFB
:1018BC00ACE6022B0BD0FFF72DFB024600283FF4C1
:1018CC0093AE538865494846FFF778FD9EE6FEF7D0
:1018DC0025FE02460028F4D14FF0E023D3F8F03D6A
:1018EC0013F0010F3FF480AE00BE7DE65B4B998890
:1018FC00FEF738FE024600283FF476AE03785749CF
:10190C004846FFF75BFD81E6FFF702FB0246002825
:10191C003FF46AAE037851494846FFF74FFD75E630
:10192C004E4B5B88012B7FF45FAE4C49CB7D43F073
:10193C000203CB754846FFF7F1FCCDE5474B5B88BE
:10194C00012B7FF451AE4549CB7D23F00203CB75BF
:10195C004846FFF7E3FCBFE54049CB7DADF81A30B4
:10196C0002230DF11A024846FFF728FDB4E54FF0AB
:10197C00E023D3F8F03D13F0010F3FF435AE00BE79
:10198C0032E6364B9B88DAB20F2A3FF62DAE134661
:10199C00324A1344DB7E2E4A1278934221D203EB57
:1019AC00C3032C4A116811EB83013FF41DAE2B4A83
:1019BC004846FFF749FA00287FF48EAD274B1B7879
:1019CC0013F0600F7FF410AE244B18615B780A2B78
:1019DC000BD00B2B7FF408AE20494846FFF79EFC3A
:1019EC007AE57FF401AE1E49E1E700238DF81A3049
:1019FC0001230DF11A0219494846FFF7DFFC6BE58C
:101A0C00164A117911F0080F18D101F00F00134A82
:101A1C0002EB400202EBD11292F82B200C4800781A
:101A2C0082421FD202EBC2020A48006800EB820815
:101A3C00EBB1B8F1000F3FF4D7AD2EE04FF0E0233F
:101A4C00D3F8F03D13F0010F3FF4CEAD00BECBE563
:101A5C003009002034090020970900207C0900205F
:101A6C001C2B000840F05081ABB9DFF8A882AA4BC0
:101A7C005B7803F0FD02012A15D0BBBB4846FFF78B
:101A8C0009FDADF81A0002230DF11A02A2494846CD
:101A9C00FFF794FC20E5DFF87C829F4A41464846DC
:101AAC00FFF7D2F9B2E59C4A528822B9012B19D022
:101ABC004846FFF7BFFCB8F1000F3FF40DAD964A56
:101ACC0041464846FFF7C0F90023934A136192F848
:101ADC003C3013F0010F7FF4FFAC11464846FFF782
:101AEC001DFCF9E44846FFF7BDFCE4E74FF0E023AA
:101AFC00D3F8F03D13F0010F3FF476AD00BE73E563
:101B0C004FF0E023D3F8F03D13F0010F3FF46CAD30
:101B1C0000BE69E5002079E59DF8201001F00F006A
:101B2C004FEAD11C07EB400303EBD11393F83B2096
:101B3C0002F0FA0283F83B20D8B1774B03EB400359
:101B4C00634493F82B30754A1278934280F09F804F
:101B5C0003EBC303724A126812EB830300F09A8002
:101B6C00D3F81880099B9DF821209DF81C00C047D4
:101B7C00B2E49DF81C309A46DDF82490664BDB8865
:101B8C00002B4BD0644B93F8008088F0FF0808F0D2
:101B9C008008414545D0604B93F90030002B12DB97
:101BAC005D4B986800283FF497AC1A469B89D28904
:101BBC009B1A994528BF99465A4B984203D04A46DE
:101BCC00194600F0F7FE544AD3894B449BB2D3819B
:101BDC00916849449160D2889A4202D0B9F13F0F82
:101BEC0045D84D4B1B692BB14B4A022150469847A7
:101BFC00002833D000220092134641465046FFF78E
:101C0C0047FB00287FF468AC4FF0E023D3F8F03D9D
:101C1C0013F0010F3FF460AC00BE5DE44FF08008A0
:101C2C00B7E7B9F1000F09D04FF0E023D3F8F03D3E
:101C3C0013F0010F3FF450AC00BE4DE4DFF8D88038
:101C4C004146504600F02EFCD8F81030002B3FF4E3
:101C5C0043AC42460321504698473DE4014650466A
:101C6C0000F05AFC8021504600F056FC34E45046FB
:101C7C00FFF76AFB00287FF42FAC4FF0E023D3F87A
:101C8C00F03D13F0010F3FF427AC00BE24E401D16A
:101C9C00204B65E74FF0E023D3F8F03D13F0010F34
:101CAC0000D000BE0BB0BDE8F08F3B7D002B3FF4A5
:101CBC0013AC194BD87DC0F34000FFF72EF90BE4A1
:101CCC003B7D002B3FF408ACFFF728F904E4089B9C
:101CDC00002B3FF401AC09989847FFF7FDBBBB7E86
:101CEC0013F0010F3FF4F8AB0898FFF710F9FFF76A
:101CFC00F3BB4FF0E023D3F8F03D13F0010F3FF4AA
:101D0C00EBAB00BEFFF7E8BB002B7FF46DAC984645
:101D1C00ADE670471C2B00087C0900203009002020
:101D2C0034090020380900202DE9F04100F00F069D
:101D3C004FEAD01E00230EF1020C214CA444651C6A
:101D4C008EF0010711E0984601291CD014F82320CD
:101D5C00FF2A01D0B24205D115F82320FF2A19D051
:101D6C008A4217D00133082B1ED0D8B21CF823207E
:101D7C00002AE8D015F823208A42F3D114F8232046
:101D8C00B242EFD119E004EB83023A449278002A74
:101D9C00E8D1DBE70A4B03F8286003EB88035970A2
:101DAC00734401229A7008E04FF0E023D3F8F03D21
:101DBC0013F0010F00D000BE0020BDE8F08100BF81
:101DCC00CC09002010B582B00C460DF106020DF1C5
:101DDC00070100F0ADFC03460F4A1088C1188AB207
:101DEC0040EA0141002C18BF084613449BB2002C5A
:101DFC0018BF1A46084B1A80B2F5007F01D802B002
:101E0C0010BD4FF0E023D3F8F03D13F0010F00D0DC
:101E1C0000BE4FF6FF70F2E7C809002070B5204BEA
:101E2C000022A3F84C201F4B03F12000FF21197056
:101E3C0059709A70DA7004338342F8D140241A4BEB
:101E4C001C8000210846FFF76FFF00218020FFF760
:101E5C006BFF164B9C8100259D739C839D772946B7
:101E6C002046FFF7AFFF86B229462046FFF7AAFFB0
:101E7C000F4B1E8118800A4E3488082201212846F7
:101E8C0000F06AFC24F40F4323F08F0383F408530F
:101E9C0083F0200333808023A6F84C3070BD00BF44
:101EAC00005C0040CC090020C8090020EC0900208F
:101EBC00006000402DE9F04383B007460E46B0F8B1
:101ECC000AE00589A5EB0E05ADB283899D4228BFBA
:101EDC001D46354B33F8218048F4004444F080040F
:101EEC0008F4C068B8F5806F0CBFC4F380130023EE
:101EFC00994603EB41032D4A32F833C04FEA4C0CA0
:101F0C000CF1804C0CF5C04C4068002844D06B465A
:101F1C0000220092019202228DF800202A4661468E
:101F2C00FEF7A3FE7B892B447B8109EB4603DB0088
:101F3C0003F1804303F5C0439A8802F47C42C5F355
:101F4C00090515439D8084F03004B8F5806F04BFFB
:101F5C000123FB7324F4E04424F04004A4B2144B9A
:101F6C004FF40021C3F88010BFF34F8FBFF36F8F76
:101F7C004FF48012C3F88020BFF34F8FBFF36F8FE5
:101F8C00094820F82640BFF34F8FBFF36F8F1960BD
:101F9C001A6003B0BDE8F083396803462A467144E1
:101FAC006046FEF782FDBDE7005C0040006000402B
:101FBC0000E100E070B50B4602EB4100294901EB52
:101FCC0000118D7B012A3BD0274931F8251021F4D3
:101FDC00804424F0700444F4004444F0800402EB88
:101FEC004302204B03EB02131A899B899A4228BFA8
:101FFC001A4601F4C061B1F5806F28D00121284642
:10200C0000F0AAFB84F44054184B4FF40021C3F8A1
:10201C008010BFF34F8FBFF36F8F4FF48012C3F854
:10202C008020BFF34F8FBFF36F8F0F4820F82540F0
:10203C00BFF34F8FBFF36F8F19601A60012070BD13
:10204C0029460B4800EB4310FFF734FFF6E7164622
:10205C000021284600F080FB32460121284600F082
:10206C007BFBCFE7EC090020005C004000E100E0C6
:10207C00FC09002010B5044600F02EFB094B002291
:10208C00A3F84020A3F85020B3F8402042F45D425E
:10209C00A3F840202046FFF7C1FE2046FEF73FFF85
:1020AC00012010BD005C004039B1084AB2F8403044
:1020BC0043F40073A2F840307047044AB2F8403041
:1020CC0023F40073A2F84030704700BF005C00405E
:1020DC002DE9F04F89B00446B94BB3F844A01AF47B
:1020EC00007F04D0B3F8403013F4007F12D11AF4FF
:1020FC00806F24D11AF4805F35D11AF4006F4ED161
:10210C001AF4807F76D0AF4B1B78012B63D0002B59
:10211C006BD067E0AA4B4FF6FF52A3F84420B3F8FC
:10212C00483000228DF8142003228DF81520C3F3BB
:10213C000A030693012105A8FEF774FFD7E7A04B0D
:10214C004FF6FF32A3F844202046FFF767FE00232A
:10215C008DF8143001218DF815108DF8183005A864
:10216C00FEF760FF94E1964BB3F8402022F0040296
:10217C00A3F84020B3F8402022F00802A3F8402036
:10218C004EF6FF72A3F8442000238DF8143005237B
:10219C008DF81530012105A8FEF744FFADE7884BFB
:1021AC00B3F8402042F00802A3F84020B3F84020D6
:1021BC0042F00402A3F840204FF2FF72A3F844202F
:1021CC0000238DF8143004238DF81530012105A857
:1021DC00FEF728FF94E77A49B1F8402022F010026C
:1021EC00A1F84020013B774A1370754B4FF6FF6204
:1021FC00A3F84420724FDFF8D0B1CDF804A019E059
:10220C0000238DF8143006238DF8153003AB93E8BA
:10221C00030008AB03E90300012105A8FEF702FF48
:10222C0004E008220121002000F096FA16F0800F3D
:10223C0040F0CE80B7F94430002B80F21781B7F80C
:10224C00445005F00F05AC0004F1804404F5B8448B
:10225C00268816F4004FE9D016F4006F25D05B4B9E
:10226C0003EB0513B3F80C80C8F309081889400078
:10227C000023424603A900F1804000F5C040FEF760
:10228C0034FC238823F070031B051B0D43F08003E3
:10229C002380B8F1080FB3D04FF0E023D3F8F03D12
:1022AC0013F0010FBDD000BEBBE7238823F07003F1
:1022BC001B051B0D43F080032380B4F8009009F03C
:1022CC000F0A09F4C0630093B3F5806F06BF89F45D
:1022DC008043C3F38033012303EB45033B4901EBFC
:1022EC00C302B2F80480C8F3090831F833C04FEACE
:1022FC004C0C0CF1804C0CF5C04C0BEB4A13586891
:10230C00A8B305AB002205925A6002228DF8142066
:10231C0042466146FEF7C0FC0BEB4A12538943441C
:10232C009BB253819289904504D30BEB4A110989D6
:10233C008B422AD30121284600F00EFA0BEB4A19E6
:10234C00B9F80A304FF000088DF8148007228DF888
:10235C0015208DF818A007938DF81980012105A878
:10236C00FEF760FEA9F80A80A9F808805EE74FEA3C
:10237C004A130BEB4A1251895BF8030000234246C7
:10238C0001446046FEF7B1FBC6E70098B0F5806FDC
:10239C000CD129F4804929F0700949F4004949F01D
:1023AC00800989F44059A4F800903FE7C91A89B212
:1023BC008A4228BF0A460121284600F0CDF9E8E7F9
:1023CC00005C0040CA090020EC09002000600040BD
:1023DC00238823F4E14323F070036FEA43436FEA4D
:1023EC0053432380238803F00F0203F4C061B1F53B
:1023FC00806F0DD0284B03EB4213598B1B8B8B42F8
:10240C0022D02946254800EB4210FFF753FD11E777
:10241C00214901EB4211C97F00293FF40BAF1E4942
:10242C0001EB42110020C877C3F3801383F0010342
:10243C0003EB4503DB0003F1804303F5C0439988AC
:10244C0001F47C419980D5E700238DF814300720E6
:10245C008DF8150062F07F028DF8182007918DF829
:10246C001930012105A8FEF7DDFDE3E6DDF804A037
:10247C001AF4804F0CD04FF0E023D3F8F03D13F05A
:10248C00010F00D000BE064B4BF6FF72A3F84420A0
:10249C0009B0BDE8F08F00BFEC090020FC0900205A
:1024AC00005C00400B7813F07F0F00D070474B7826
:1024BC00052BFBD14B8863F07F03DBB2014AA2F8FA
:1024CC004C30F3E7005C004038B58E461D4601F0F9
:1024DC000F010B4B4FEA410C0CEBDE1C4FEA0C14BA
:1024EC0003EB0C1C1A510022CCF80420ACF8085059
:1024FC00ACF80A204FEADE12FFF75CFD38BD00BFD6
:10250C00EC09002000B583B0002200921346802114
:10251C00FFF7DAFF03B000BD10B501F00F035B004D
:10252C0003EBD1131E4A02EB031393F80EC01D4BA1
:10253C0033F82C30C90928D123F4804323F07003DD
:10254C0043F4004343F080030C221446164A4FF424
:10255C00002EC2F880E0BFF34F8FBFF36F8F4FF4A4
:10256C008010C2F88000BFF34F8FBFF36F8F012133
:10257C00A1404B400B4921F82C30BFF34F8FBFF3D8
:10258C006F8FC2F800E0106010BD23F4E04323F01D
:10259C00400343F4004343F0800304221446D5E780
:1025AC00EC090020005C004000E100E000B501F007
:1025BC000F035B0003EBD113204A02EB0313987B50
:1025CC001F4B33F82020C9092BD122F0700343F4A0
:1025DC00004343F0800302F4C062B2F5806F03D075
:1025EC000C2102228A405340164A4FF4002CC2F8A8
:1025FC0080C0BFF34F8FBFF36F8F4FF48011C2F8C1
:10260C008010BFF34F8FBFF36F8FDFF834E02EF8DD
:10261C002030BFF34F8FBFF36F8FC2F800C0116033
:10262C0000BD22F4E04343F4004343F0800302F482
:10263C00C062B2F5806FD7D00421D2E7EC0900203C
:10264C00005C004000E100E0BFF34F8FBFF36F8FE1
:10265C00034B4FF400221A604FF480121A6070473B
:10266C0000E100E0084B4FF40022C3F88020BFF3D8
:10267C004F8FBFF36F8F4FF48012C3F88020BFF3DE
:10268C004F8FBFF36F8F704700E100E010B5044629
:10269C00FFF7E8FF0D4B01220D484FF0000C4FF0F7
:1026AC00000EFF2120F822C01971597183F806E041
:1026BC0083F807C001320433082AF3D12046FFF710
:1026CC00C3FF044BC0221A8010BD00BFCC090020F0
:1026DC00005C0040C809002082B0144B0322A3F810
:1026EC00402000230093009BC72B06D800BF009B03
:1026FC0001330093009BC72BF8D90C4AB2F8403039
:10270C0023F00203A2F8403000230193019BC72B56
:10271C0006D800BF019B01330193019BC72BF8D94D
:10272C00024B0022A3F8442002B07047005C00402A
:10273C003E280BD91F3040094FF0010C2023C0B2AA
:10274C0081F800C0107003FB00F0704701304008A6
:10275C004FF0000C0223F2E730B583B005460C466F
:10276C0010460DF106020DF10701FFF7E1FF9DF890
:10277C0007309DF80620D21ADB0343EA82239BB272
:10278C00002B08BF4FF4004304EB4501C90001F1D5
:10279C00804101F5C0418B8003B030BD08B5244A9F
:1027AC00136823F0070343F001031360136843F02D
:1027BC0010031360A2F58052136843F48033136046
:1027CC00136813F4003FFBD01A4A536823F47C13AC
:1027DC0043F488135360136843F0807313601368D9
:1027EC0013F0007FFBD0134B5A6822F0F0025A60B2
:1027FC005A6822F4E06242F480625A605A6822F409
:10280C0060525A605A6822F0030242F002025A6087
:10281C001A46536803F00C03082BFAD1054A536887
:10282C0043F4800353600448FEF7C8F808BD00BFAA
:10283C000020024000100240006CDC0282B02E4BE3
:10284C009A6942F004029A619B6903F004030193B4
:10285C00019B2A4BD3F80418294B93FAA3F3B3FA30
:10286C0083F39B000F2202FA03F321EA0301244AAB
:10287C0092FAA2F2B2FA82F29200012393400B4335
:10288C001F4A92FAA2F2B2FA82F29200042101FAE1
:10289C0002F223EA0203194AC2F80438194B4FF426
:1028AC0080525A6100230093009A174B9A4206D823
:1028BC001A46009B01330093009B9342F9D90F4BAE
:1028CC00D3F804180E4B93FAA3F3B3FA83F39B00DB
:1028DC000F2202FA03F321EA0301094B93FAA3F343
:1028EC00B3FA83F39B00042202FA03F30B43034A6B
:1028FC00C2F8043802B070470010024000000140DA
:10290C001000100400080140BFD401007047000003
:10291C00FEF752F80B480C490C4A002302E0D4583D
:10292C00C4500433C4188C42F9D3094A094C00230F
:10293C0001E013600432A242FBD300F017F8FDF75C
:10294C001FFD7047000000201C000020402B0008D9
:10295C001C000020EC0A0020FEE7034602449342D0
:10296C0000D1704703F8011BF9E7000070B5002691
:10297C000C4C0D4B1D1BB6EBA50F09D10026FFF718
:10298C00C5FF0A4C0A4B1D1BB6EBA50F05D170BD3C
:10299C0054F8043B98470136EDE754F8043B98474C
:1029AC000136F1E7402B0008402B0008402B0008B3
:1029BC00402B00080A44914200F1FF3300D17047CC
:1029CC0010B511F8014B914203F8014FF9D110BD2C
:1029DC0001AA0000545853554954452E4F524700F4
:1029EC0062646D746F7920626F6F746C6F61646573
:1029FC007200000062646D746F79206669726D7785
:102A0C0061726500303132333435363738394142F2
:102A1C0043444546000000000A0000000000030685
:102A2C00A2001400030057494E5553420000000009
:102A3C000000000000008400040007002A0044008D
:102A4C006500760069006300650049006E00740043
:102A5C006500720066006100630065004700550068
:102A6C00490044007300000050007B00300042001D
:102A7C003200370041004600380042002D00310082
:102A8C004300390039002D00340035003600410078
:102A9C002D0042003500430041002D00320035006E
:102AAC004400370045003800300037004200440035
:102ABC00410035007D00000000000000050F2100E2
:102ACC00011C100500DF60DDD88945C74C9CD26520
:102ADC009D9E648A9F00000306A200010000000076
:102AEC0009021B00010100C0320904000000FE01B4
:102AFC000204092105E8030004100100120101027F
:102B0C0000000040FFFF080100010102030100006A
:102B1C00000000006D060008770600085906000842
:102B2C007D060008490700080000000000000000B6
:042B3C000000000095
:102B400000127A00FD0E00080C0000007008002042
:0C2B5000C000000000000000FF000000BA
:040000050800291DA9
:00000001FF
