:020000040800F2
:10400000FC4F002001B0000849B0000849B000088A
:1040100049B0000849B0000849B00008000000009D
:1040200000000000000000000000000049B000088F
:1040300049B000080000000049B0000849B000087D
:1040400049B0000849B0000849B0000849B000086C
:1040500049B0000849B0000849B0000849B000085C
:1040600049B0000849B0000849B0000849B000084C
:1040700049B0000849B0000849B0000849B000083C
:1040800049B0000849B0000849B00008694200087A
:104090007342000849B0000849B0000849B0000860
:1040A00049B0000849B0000849B0000849B000080C
:1040B000C147000849B0000849B0000849B00008ED
:1040C00049B0000849B0000849B0000849B00008EC
:1040D00049B0000849B0000849B0000849B00008DC
:1040E00049B0000849B000087D4200080000000007
:1040F00000000000000000000000000000000000C0
:0C41000000000000000000005FF808F163
:1042000070B5002481264FF0FF3503E02146284693
:1042100005F00CFC05F0A6F858B1204600F0B6FBFE
:10422000B0F5046FF2D13146204605F0B3FB00280B
:10423000ECD170BD00B54FEA116C91FAA1F3B3FA5D
:1042400083F39B004FF00F0E0EFA03F350F80CE0CF
:104250002EEA030391FAA1F1B1FA81F189008A40B3
:104260001A4340F80C2000BD08B5002006F0EEF916
:1042700008BD08B5002006F0E9F908BD08B5002022
:1042800006F0E4F908BD2DE9F041064605886D0009
:10429000FFF7B6FFBDB100274FF0FF3804E026441A
:1042A0003946404605F0C2FB05F05CF858B12A4695
:1042B0003146384600F05EFB04462D1A384600F0C1
:1042C0006FFB002DEBD10020BDE8F0810023024AF6
:1042D0001360024A13607047200000202400002071
:1042E0000023024A1360024A136070472000002036
:1042F0002400002038B500214FF0FF3005F096FB78
:10430000254B1C681CB1244B1C68204638BD204638
:1043100000F004FB0028F6D0204B1868012823D9B0
:104320001F4B1B681D4643B91E4B1B885B001C4A74
:104330001360083BB3F5FF6F24D8194D2A68121A91
:1043400018490144002000F0FDFA144B1A6810448B
:1043500018602B689842D8D30F4A136000232B6053
:104360000E490B601468D0E7C0F102020D49014408
:10437000002000F0E7FA094B1A6810441860012881
:10438000C3D9CDE7002000F0E7FA0023044A136008
:10439000024A13602C46B8E7701000202400002069
:1043A0002000002030080020014B00221A607047D6
:1043B00070100020014B01221A6070472800002075
:1043C0002DE9F04196B00646016800244E4A204689
:1043D000013422FA04F3994280F09380072CF6D13D
:1043E0004A4D2B6943F480432B612B6923F48043AE
:1043F0002B610DF13008404604F06FFA00270C974E
:104400004FF482730D934FF4007311933389B3FA11
:1044100083F35B09DB0113937389DB1B18BF012353
:10442000DB020E93B388DB1B18BF01235B000F93E5
:10443000F388DB1B18BF01231093354B53F824304E
:1044400012931497334C4146204604F018FA23681F
:1044500043F040032360636823F0010363606368F3
:1044600023F0020363606B6943F001036B616B69C6
:1044700003F001030193019B02AE304604F056FBAA
:10448000254B02930A970697802307934FF4807376
:1044900008934FF480630993059704974FF40057EE
:1044A0000B97A5F580550421284604F091FA324671
:1044B0000421284604F010FB102304934FF44053CA
:1044C0000B930521284604F083FA3246052128463D
:1044D00004F002FB6B6C23F001036B64AB6D23F003
:1044E0000103AB656F604FF400336B60636843F0AA
:1044F00001036360636843F00203636016B0BDE8C4
:10450000F08104466CE700BF00366E0100100240E7
:10451000A8B60008003800400C38004070B58CB0D8
:10452000624B634A9A6006F097FC624B9A6945F2C7
:104530001D010A439A619A690A400192019ADA6957
:104540005D490A43DA61DA690A400292029A5A69BD
:1045500042F001025A615B6903F001030393039B7C
:10456000564C042240F608012046FFF763FE09225C
:1045700040F204412046FFF75DFE514BD3F800188E
:1045800040F2044393FAA3F3B3FA83F39B000322AC
:1045900002FA03F321EA030140F2044292FAA2F282
:1045A000B2FA82F29200032393400B4340F204429A
:1045B00092FAA2F2B2FA82F29200042101FA02F215
:1045C00023EA02033E4AC2F8003804AD284604F04C
:1045D000EDF94FF4E1330493A4F544442946204611
:1045E00004F088F9E36843F40053E360314BDA697F
:1045F00042F00102DA61DB6903F001030493049BDA
:104600004FF080431A6822F001021A601A6842F0E3
:1046100004021A606FF001021A61DA6842F00102C6
:10462000DA60284B202283F81C234FF080521A6056
:1046300003F54063D3F8FC3013F0807F0DD11B4AA3
:10464000D2F8FC3043F08073C2F8FC301E4B0022DD
:104650005A601A6842F001021A6000F0A0FA06F0EF
:104660004BFC1A4B1B88ADF82C300BA9002004F032
:1046700095FA00F027FB164D164E15E00023336027
:10468000236853B9FFF736FE0028F9D06B79002B69
:10469000F4D1284600F02AFBF0E7FFF7B1FD142023
:1046A00000F07EF806F090FC0B4CEBE700ED00E02C
:1046B0000040000800100240054082000008014050
:1046C0000000014000E100E0001000E0C8B6000872
:1046D00030080020701000202800002010B500F5E0
:1046E000801042308002072994BF0446041D01F067
:1046F00007039B00D4F800E04FF00F0C0CFA03FC0A
:104700002EEA0C0E042A14D8DFF834C01CF802C0BC
:104710000CFA03F343EA0E032360022A03D10123B8
:104720008B4043610BE0032A09D101238B400361D5
:1047300005E0042202FA03F343EA0E03236010BDEE
:10474000CCB600084FF080431A6822F001021A60CC
:104750001A6822F0700242F010021A601A6822F4FD
:1047600040721A604BF680329A620138D8625A69F8
:1047700042F001025A616FF001021A61064A4FF0DD
:104780008051C2F88011054A002111601A6842F078
:1047900001021A60704700BF00E100E074100020C1
:1047A00008B5FFF7CFFF024A1368002BFCD008BD05
:1047B00074100020014B1868704700BF741000206F
:1047C0004FF080431A6822F001021A606FF0010274
:1047D0001A61024B01221A60704700BF741000205A
:1047E0000146027862B1DFF81CC001232CF8022FC9
:1047F000D8B211F8012F22B10133192BF6D170472D
:10480000104670477810002000487047E4B7000851
:1048100000487047C4B7000800487047A0B70008B8
:10482000012914D108B59446137803F06003402B96
:1048300001D0002008BD5378012BFAD19388072BB3
:10484000F7D1A223034A614605F022F8F2E70120DE
:10485000704700BFFCB6000808B5032836D8DFE86B
:1048600000F0020E13181A4B40F209425A8001233D
:10487000174801335B0043F44073038008BD1548BB
:10488000FFF7AEFF0346F3E71348FFF7A9FF034620
:10489000EEE70F480021DFF844C0C1F3460303F1FF
:1048A0000053A3F5805393F8E83701F0010282F03A
:1048B00001029200134103F00F031CF8033020F8AB
:1048C000023F01311829E8D11823D1E70020D5E7AC
:1048D00078100020D4B60008E0B60008E8B600085A
:1048E000034640B90B4A937F9279134318BF4FF0A8
:1048F000FF30C0B27047074A927F824207D0054A14
:104900009079C01A18BF4FF0FF30C0B27047002036
:10491000704700BFAC1000207047704770B9084A5C
:10492000138E518E908D8B42AEBF5B1AC1EB40014E
:104930005B189BB2984228BF18467047002070470A
:10494000AC10002008B10020704708B5014804F001
:10495000A0FA08BDC810002000B1704708B504488F
:1049600004F0BDFA024BA3F10C0004F046FA08BDB6
:10497000D410002008B10020704708B592B2024858
:1049800004F008FA08BD00BFB010002008B10020F4
:10499000704708B5014804F020FA08BDB0100020A7
:1049A00008B10020704708B5014804F0ACF908BD13
:1049B000B010002070B584B0114D41F2B402002156
:1049C000284606F037FE002402944FF40466019650
:1049D00005F67403009323462246214605F11C0088
:1049E00004F05CF90294019605F134030093234628
:1049F00001222146281D04F051F904B070BD00BF0A
:104A0000AC1000200120704738B5084C0025204626
:104A100020F8285B04F063FA4FF00003A37704F159
:104A2000100004F05CFAA57138BD00BFAC10002086
:104A3000F8B54B79FF2B01D00020F8BD05460C4698
:104A400016460020FFF74CFF70B9B446A4446746F1
:104A5000207821180E462E4B1D70A2785A708C4576
:104A600044D8301B80B2E8E74FF0E023D3F8F03DA4
:104A700013F0010FE0D000BEDEE73146284604F017
:104A80002DFED8B1B378DB0921D1B388C3F30A0373
:104A90001F480577B2788277B288C2F30A0202848F
:104AA00043841C3004F0A9F958BB4FF0E023D3F83D
:104AB000F03D13F0010FBFD000BEBDE74FF0E02383
:104AC000D3F8F03D13F0010FB6D000BEB4E71048A4
:104AD0000571B3788371B388C3F30A0303814FF47C
:104AE00004634381043004F00EF90AE03378334460
:104AF0009F42B6D37378042BB3D00B2BB1D0052BC8
:104B0000BBD03378F3181E469F42AAD9EEE700BF08
:104B1000AC10002038B50C461D460846FFF7E0FEF5
:104B200040BB154B9B7FA34205D0134B9B79A342FF
:104B300012D0012038BD104B596A21B10346AAB2E8
:104B40000E4804F0C7FA002211461046FFF7E4FEB3
:104B50000B4804F052F9ECE7A9B20020FFF7DDFEA4
:104B6000084804F0D0F80028E3D12946054804F0AD
:104B7000A8F8DEE70020DDE7AC100020D41000200C
:104B8000C8100020B010002000230B8070474FF2A7
:104B900001030B8070474FF470430B80704708B5DA
:104BA00002220C210120FFF799FD0022092101209A
:104BB000FFF794FD00220A210120FFF78FFD00225C
:104BC0000F210120FFF78AFD00220E210120FFF7AF
:104BD00085FD03220D210120FFF780FD00220B211E
:104BE0000120FFF77BFD08BD38B505460846144691
:104BF0000B4906F039FB214606F0EAFB044628463D
:104C000006F0DAFA0546214606F0E0FC30B92946FE
:104C1000204606F01FFA06F0EDFC38BD0120FCE747
:104C2000001B374C38B50D46194C072323804FF431
:104C3000A97363800023A380C4F80600C4F80A1097
:104C4000FFF7B2FB2046FFF71EFB4FF4FA60FFF7B9
:104C500079FDFFF74FFB18B9FFF7ACFD0028F8D03E
:104C60000C4B1B688BB10C4B1A886B0803339A42B0
:104C70000BD1094B5B88012B07D1074B9B88B3F500
:104C8000A97F064818BF002000E0002038BD00BF03
:104C90002C00002070100020300800203608002072
:104CA00010B5074C042323804FF480736380A080E9
:104CB000E180FFF779FB2046FFF7E5FA10BD00BF62
:104CC0002C000020054B064A1A60064B064903F1EA
:104CD0003C0243F8041B9342FBD170476021002043
:104CE000A0860100642100208F4B00082DE9F047C9
:104CF000B0F8008000EB4808051D46888B4C012366
:104D000024F8023B4FF002094FF2020A874F18E0E5
:104D1000A4F802A0A38801339BB2A3802A88228032
:104D20003A881A443A80013EB6B2002E00F0088359
:104D30006288002A40F004836A8805EB420504EB90
:104D40004304A4F80490281D4045E1D86B88012B4A
:104D5000DED905EB43029045DAD32A88013A702A5E
:104D600000F2EA82DFE812F0F500ED01FB017802C3
:104D7000E802E802E802E802E802E802E802E802E3
:104D8000E802E802E802E80283028E029902A40225
:104D9000AF02BA02E802E802E802E802E802E8022A
:104DA000E802E802E802E802E802E802E802E802B3
:104DB000E802E802E802E802E802E802E802E802A3
:104DC000E802E802E802E802E802E802E802E80293
:104DD000E802E802E802E802E802E802E802E80283
:104DE000E802E802E80271009F00E802E802E80237
:104DF000E802E802E802E802E802E802E802E80263
:104E0000E802E802E8027C00B600C502E802E80217
:104E1000E802E802E802E802E802E802E802E80242
:104E2000E802E802E802CB00DC00E802E802E8025F
:104E3000E802E802E802E802E802E802E802E80222
:104E4000E802E802E802D002DD02062B03D04FF2AE
:104E5000020363805EE7364B5B6AA11C984759E703
:104E6000A11C062B09D1324BDB6A324A93420FD088
:104E7000314A93420CD0984765E203236380502364
:104E8000A3804FF20203E3800846FFF7FCF95AE2E1
:104E9000032363805023A3804FF47043E3800846CC
:104EA000FFF7F1F94FE2062B03D84FF202036380BC
:104EB00030E72989063B01F0010202EB51029342DF
:104EC00003D04FF20203638024E7194B1B6AA11C35
:104ED00098471FE7052B09D969892A8952EA0142B7
:104EE00004D0063B0132B3EB520F03D04FF2020362
:104EF00063800FE70E4B9B6AA11C98470AE7042BBF
:104F000003D04FF20203638004E7EB881BB94FF232
:104F100002036380FEE6064BDB69A11C9847F9E6B5
:104F2000042B0BD84FF202036380F3E62C00002021
:104F3000642100208F4B0008974B0008EB881BB9B9
:104F40004FF202036380E5E68B4B9B69A11C9847F7
:104F5000E0E6FFF7B7FE884B884903F13C0243F8CF
:104F6000041B9342FBD1844B854A9A6300236380E0
:104F70006B88062B03D04FF202036380CAE6A86851
:104F8000804B1860AB88232B00F2D780DFE813F04A
:104F900024004400D50064008000D500D500D50071
:104FA000D500D500D500D500D500D500D500D50059
:104FB0008C00D500D500D500D500D500D500D50092
:104FC000D500D500D500D500D500D500D500D50039
:104FD000D5009C00AF00C20006F0EEF801F068FDBD
:104FE000654B694A1A60694A9A60694A5A60694A17
:104FF000DA60694A1A61694A5A61694A1A62694AF9
:105000005A62694A9A62694ADA62694A9A61694AE5
:10501000DA61694A1A637DE606F0CEF801F000F91C
:10502000554B664A1A60664A5A60664ADA60664AB2
:105030005A61664A9A63664A1A62664A5A62664AC0
:105040009A62664ADA62664A9A61664ADA61664A32
:105050005A63664A1A635DE606F0AEF800F02AFA73
:10506000454B634A1A60634A5A60634A9A60634ACE
:10507000DA60634A9A63634A1A62634A5A62634A0D
:105080009A62634ADA62634A9A61634ADA6141E684
:1050900002F000FF384B614A1A60614A5A60614A67
:1050A0001A62614A5A6235E606F086F802F01CF888
:1050B000314B5E4A1A605E4A9A605E4A5A605E4AA6
:1050C0009A615E4ADA6125E606F076F8012102F07F
:1050D000FBFB294B5A4A9A605A4A1A625A4A5A6248
:1050E0005A4A9A615A4ADA615A4A5A6312E606F0F3
:1050F00063F8022102F0E8FB1F4B514A9A60514AC3
:105100001A62514A5A62514A9A61514ADA61514AC5
:105110005A63FFE506F050F8032102F0D5FB164B69
:10512000474A9A60474A1A62474A5A62474A9A610E
:10513000474ADA61474A5A63ECE54FF470436380AB
:10514000E8E5022B03D04FF202036380E2E500237F
:1051500063800323A38040F20223E380DAE5042B7B
:1051600003D04FF202036380D4E5E988A88801F0F8
:1051700071FC00236380CDE564210020974B00087B
:10518000894B000860210020D1680008DD68000814
:10519000C9690008356A000865690008416A0008A5
:1051A0003D6B00089D6B0008296C0008816C0008AD
:1051B000956D0008D36D0008116E00088561000828
:1051C00091610008016200080D6200086D66000828
:1051D000DD6200083B630008B9630008CD63000886
:1051E000616200089962000899640008F964000887
:1051F0007555000883550008915500085559000859
:105200007D590008B556000889570008A5580008C0
:105210000D560008E95800081F5900083D80000895
:105220000580000851800008D18000080171000845
:10523000C57100084D710008D1710008477200085F
:10524000ED780008E97C00088B7C0008537B00089F
:10525000F1790008417D0008022B03D04FF20203D0
:10526000638057E5FFF7A6F80023638052E5022B21
:1052700003D04FF2020363804CE5344B1B68A11C42
:10528000984747E5022B03D04FF20203638041E5C4
:105290002E4B9B68A11C98473CE5022B03D04FF294
:1052A0000203638036E5294B5B68A11C984731E512
:1052B000022B03D04FF2020363802BE5234BDB6804
:1052C000A11C984726E5022B03D04FF2020363800E
:1052D00020E51E4B1B69A11C98471BE5022B03D040
:1052E0004FF20203638015E5184B5B69A11C9847D8
:1052F00010E50C2B03D04FF20203638023E0134B25
:105300001B6BA11C98471EE0EB8801335B0804D09F
:105310000E4B5B6BA11C9847FCE44FF202036380C9
:10532000F8E4022B03D04FF202036380F2E4074B50
:105330009B6BA11C9847EDE44FF470436380E9E454
:105340000348FEF7A0FFBDE8F08700BF64210020FE
:105350002C00002008B503220B210120FFF7BEF925
:1053600000220D210120FFF7B9F9044B4FF4005240
:105370001A614FF400621A6108BD00BF000C0140C1
:1053800010B5FFF7E7FF01220B211046FFF7A6F942
:105390000F4B4FF400625A613220FFF701FAFFF71A
:1053A000D9FF4FF4FA70FFF7CDF9094CA36813F455
:1053B000006F03D1FFF7FEF90028F7D0044B9B687C
:1053C00013F4006F4FF2110018BF002010BD00BF92
:1053D000000C014038B50D46094C2060082363607D
:1053E000204602F0E5FE256010236360204602F0AF
:1053F000DFFE044B186802F0BDFE002038BD00BF80
:10540000B0210020A021002070B505460E460C4CAE
:10541000C823236008236360204602F0C9FE1023DE
:1054200063602560204602F0C3FE2660204602F03D
:10543000BFFE044B186802F09DFE002070BD00BF47
:10544000B0210020AC21002038B505460B4CE823E4
:10545000236008236360204602F0AAFE2560102323
:105460006360204602F0A4FE054B186802F082FE3D
:10547000204602F0D7FE206880B238BDB02100205F
:10548000AC21002010B5094C206008236360204641
:1054900002F08EFE064B186802F06CFE102363606B
:1054A000204602F0BFFE206880B210BDB02100206F
:1054B000A421002038B50446224D234BEB626FF443
:1054C0007003AB61214BEB6110332B62043B6B62C9
:1054D000083BAB6202464FF081411020FFF784FB8E
:1054E000A86022461A491320FFF77EFBE860224697
:1054F00018491020FFF778FB286122461649112031
:10550000FFF772FB6861224614490020FFF76CFB2D
:10551000134B186022464FF085410020FFF764FBD3
:10552000104B1860224610490020FFF75DFB0F4B1F
:10553000186022464FF084410020FFF755FB0C4BCA
:10554000186038BDB0210020041000E0040C0140B8
:1055500000001041000040400000C0400000164321
:10556000AC210020A821002000003042A42100200E
:10557000A021002010B50C46FFF7ECFE002323808D
:1055800010BD10B50C46FFF7FBFE208010BD0000DB
:1055900038B50D46FFF7DEFE01220B211046FFF75E
:1055A0009DF8194C4FF4006363610A20FFF7F8F887
:1055B00001220D211046FFF791F84FF4005363616B
:1055C0003220FFF7EDF803220B210120FFF786F8C8
:1055D0004FF4FA70FFF7B6F8A36813F4006F03D125
:1055E000FFF7E8F80028F7D06420FFF7D9F8FFF7B5
:1055F000B1FE054B9B6813F4006F4FF2110318BF07
:1056000000232B8038BD00BF000C01402DE9F0477E
:105610000F460668436806EB030A50234B800023BD
:105620008B80B1B24520FFF7D5FE4FF080090123F2
:105630004FF0620812E05DB107F10A04053507EB8F
:1056400045054046FFF71EFF24F8020BA542F8D19E
:105650004E443846FEF717FE034640BBB24522D9FA
:10566000AAEB0602914528BF91464FEA59056A1DEB
:105670003A80C7F80660002BDDD0B0B2FFF7E4FE39
:105680007881B9F1020FE3D9012DE1D907F10C04BA
:10569000053507EB45054046FFF7F4FE24F8020BFD
:1056A000AC42F8D1D4E700233B80BDE8F0874FF24D
:1056B0002203F9E72DE9F0478A464368002B36D0EC
:1056C000064656F8087B23F00108B8443C461F44C0
:1056D000023F2B4D32E03188A0B2FFF795FE034622
:1056E000BC4225D020BB0234023627E0B4F5803F0F
:1056F0003688234D2CBFC423C0232B6008236B6046
:10570000284602F055FD10236B60A3B22B6028469B
:1057100002F04EFD14F0010FF6B208BF3602184831
:10572000066002F045FD174B186802F023FD0023C8
:10573000AAF80030BDE8F08702340236334644450B
:10574000D4D0B4F5803FC6D3B6F80090CC232B60FC
:1057500008236B60284602F02BFD10236B60A3B278
:105760002B60284602F024FDC5F80090284602F080
:105770001FFD044B186802F0FDFCBC42DCD1D6E7EB
:10578000B0210020AC2100202DE9F84F8946466861
:10579000002E52D001F10408046800253F4F4FF05D
:1057A000EC0BDFF8FCA008E0A0B2FFF74DFE28F8F4
:1057B000020B02350234AE421CD9012E1CD9B4F5BD
:1057C000803FF1D3C7F800B008237B60384602F071
:1057D000EFFCA3B23B6010237B60384602F0E8FC8C
:1057E000DAF8000002F0C6FC384602F01BFD38680B
:1057F00080B2DCE72E4620E0B4F5803F2DD3274E63
:10580000E423336008237360304602F0D1FCA3B276
:10581000336010237360304602F0CAFC204B1868D6
:1058200002F0A8FC304602F0FDFC14F0010F10D08D
:105830003368DBB2A8F800306E1C0023A9F80030F2
:1058400006F0010303EB56030233A9F80230BDE86A
:10585000F88F124B1B681B0AEBE7104EE0233360F6
:1058600008237360304602F0A3FCA3B23360102318
:105870007360304602F09CFC094B186802F07AFC19
:10588000304602F0CFFC14F0010F02D03368DBB2D7
:10589000D0E7024B1B681B0AF9E700BFB0210020CC
:1058A000AC2100202DE9F041054688464668048871
:1058B00021464520FFF78EFD29892046FFF7A4FDEC
:1058C000022E0CD005F10A04422734F8021B384698
:1058D000FFF780FDC4F108033344DD42F5D1002316
:1058E000A8F80030BDE8F08110B50C460388A3F19C
:1058F0004202052A0FD84288022A03D04FF2400301
:105900000B800BE08188D8B2FFF764FD0023238071
:105910000223638002E04FF470430B8010BD10B58A
:105920000C460388A3F16202052A0FD84288022A96
:1059300003D04FF240030B800BE0D8B2FFF7A2FD7B
:10594000A080002323800323638002E04FF4704390
:105950000B8010BD10B50C46064808230360436059
:1059600002F026FC044B186802F004FC002323809C
:1059700010BD00BFB0210020A821002010B50C46AA
:10598000FFF7FEFC208010BD08B500220B2101208E
:10599000FEF7A4FE00220D210120FEF79FFE00224B
:1059A0000F210120FEF79AFE00220E210120FEF7B2
:1059B00095FE002008BD00002DE9704F86B0054619
:1059C0000391904604935D4B9C6814F48044FBD192
:1059D0005A4E4FF4004333614FF4005AC6F810A0FA
:1059E000DFF85C91D9F8000002F0C4FBC6F814A0FF
:1059F000D9F8000002F0BEFBB668C6F3803615F099
:105A0000010F4E4B4FF4004214BF1A615A61DFF888
:105A10002C914FF4005BC9F810B0DFF824A1DAF83C
:105A2000000002F0A7FBC9F814B0DAF8000002F099
:105A3000A1FBD9F80830C3F3803346EA430302934D
:105A400015F0020F6ED04FF40042C9F810203B4E03
:105A50004FF40059C6F81090394D286802F08AFBBF
:105A6000C6F81490286802F085FB029B002B0CBF3F
:105A70004FF0200A4FF0070A039D002D57D06B1EF0
:105A8000012202FA03F30193A1464FF4005BCDF823
:105A900014A0A246B368C3F3803343EA4A0A019BC9
:105AA00013EA080F4FF4004314BF336173614FEAE8
:105AB0004808C6F810B0224C206802F05BFBC6F81C
:105AC00014B0206802F056FB09F10109A945E1D1A3
:105AD0005446DDF814A0194B4FF400425A61039B61
:105AE0009A4518D9154E4FF40059B368C3F3803363
:105AF00043EA4404C6F81090DFF84480D8F8000068
:105B000002F038FBC6F81490D8F8000002F032FB1F
:105B10000135AA45E9D1049B03B11C60029806B087
:105B2000BDE8708F054B4FF400425A618FE7034B7D
:105B30004FF400425A612546D4E700BF000C0140F3
:105B4000E42100202DE9704382B00646062400259A
:105B50004FF020090DF104082B46324649462846ED
:105B6000FFF72AFF43462A4607210320FFF724FFB9
:105B70000138012806D8013CEED14FF6FF7002B083
:105B8000BDE870830020FAE710B582B09B4B1C681B
:105B900044F440441C605C6824F001045C60041F11
:105BA0009748836813F4804FFBD1954B4FF4004C1A
:105BB000C3F810C04FF400501861586100BF00BF17
:105BC00000BFD3F808E0C3F814C01861586100BFE3
:105BD00000BF00BFD3F808C0186158618948019020
:105BE000DFF824C201A8CCF864000220CCF85C00E5
:105BF000586840F0004040F400005860DCF858302D
:105C000043F00103CCF858306046C36D002BFCD143
:105C10007A48836813F0800FFBD17B48836D23F0B3
:105C200001038365A0F57440436823F0004323F427
:105C300000034360836813F4804FFBD1704B4FF433
:105C4000004CC3F810C04FF4005018615861C3F8FD
:105C500014C000BF00BF00BF18615861C3F810C076
:105C600000BF00BF00BF186158614FEA344401947F
:105C7000654C01A860660220E065586840F000406D
:105C800040F400005860A36D43F00103A365204673
:105C9000C36D002BFCD15948836813F0800FFBD1F2
:105CA0005948836D23F001038365A0F57440436870
:105CB00023F0004323F400034360836813F4804F10
:105CC000FBD14F4B4FF4004018614FF40050186166
:105CD000586100BF00BF00BF1861586100BF00BF1E
:105CE00000BF186158614FF0070E4FF0630C4FF47E
:105CF00000441CF0400F14BF1C615C614FEA4C0C67
:105D000018615861BEF1010EF3D1104602F0A4FBF8
:105D10001FFA80FC3A4A936813F4804FFBD1384B4A
:105D20004FF400421A614FF400521A615A6100BFE9
:105D300000BF00BF1A615A6100BF00BF00BF1A61F7
:105D40005A61072143224FF400444FF4005012F0EF
:105D5000400F14BF1C615C61520018615861013929
:105D6000F5D1274A936813F4804FFBD1244B4FF4AD
:105D7000004119614FF400521A615A61596100BF24
:105D800000BF00BF1A615A61196100BF00BF00BFA8
:105D90001A615A61002200921B49C1F864D00222A4
:105DA000CA655A6842F0004242F400025A608B6DA4
:105DB00043F001038B650A46D36D002BFCD10F4ADB
:105DC000936813F0800FFBD10F4A936D23F001030A
:105DD0009365A2F57442536823F0004323F4000353
:105DE0005360064B5A6842F001025A601A6822F466
:105DF00040421A60604602B010BD00BF003800404B
:105E0000000C0140D67FA69A0000024030B583B056
:105E10000546002401942346224607210320FFF76C
:105E2000CBFD01AB224607210320FFF7C5FD019BF7
:105E3000C3F380132B80033818BF4FF0FF3080B2BC
:105E400003B030BD2DE9704783B0824689460524F2
:105E50004FF00008202501AE0AE0334642460721F4
:105E60000320FFF7A9FD0138012818D894B1013C9F
:105E70004346524629464046FFF79EFD3346D9F831
:105E8000002029460220FFF797FD01380128E4D8B9
:105E9000002CECD14FF6FF7003B0BDE870870020F6
:105EA000FAE72DE978478146884606240026202512
:105EB0004FF0C04A33464A4629463046FFF77CFD3C
:105EC0004346524629463046FFF776FD18B1013C5D
:105ED000F0D14FF6FF70BDE87887000070B584B050
:105EE0000C461646039000230293019302A91E4814
:105EF000FFF7D7FF054610B1284604B070BD01A9D1
:105F00001A48FFF7CEFF05460028F5D103A9184827
:105F1000FFF798FF054640B9012C0FD0022C19D08D
:105F2000042C1CD04FF202031D4602A91148FFF7B2
:105F300089FF01A90E48FFF785FFDDE70E48FFF74F
:105F400001FE0546002DF0D131460748FFF7A9FFB5
:105F50000546EAE70948FFF7F5FD0546F2E7084878
:105F6000FFF7F0FD0546EDE7A69B167CA69B367C69
:105F7000A69A367CA69A167C00000188000001A033
:105F80000000018070B584B00C46154603900023D4
:105F90000293019302A91F48FFF783FF064610B141
:105FA000304604B070BD01A91B48FFF77AFF0646D2
:105FB0000028F5D103A91948FFF744FF064640B170
:105FC00002A91748FFF73EFF01A91448FFF73AFF5F
:105FD000E6E729461248FFF735FF06460028EFD1CD
:105FE000012C07D0022C0AD0042C0DD04FF2020352
:105FF0001E46E5E70B48FFF7A5FD0646E0E70A4821
:10600000FFF7A0FD0646DBE70848FFF79BFD0646C5
:10601000D6E700BFA69B167CA69B367CA69A367C4C
:10602000A69A167C00000198000001B000000190C3
:1060300030B583B005460C460023019301A91148F1
:10604000FFF72FFF034610B1184603B030BD2146BD
:106050000D48FFF7F7FE03460028F5D16B0103F466
:106060007873C5F344100343084840EAC320FFF7A0
:1060700069FD03460028E7D101A90348FFF7E2FEC6
:106080000346E1E7A69B167CA69A167CA603007C35
:1060900030B583B004460D460023019301A9114891
:1060A000FFF7FFFE034610B1184603B030BD600194
:1060B00000F47870C4F3441303430B4840EAC32050
:1060C000FFF740FD03460028EED129460548FFF7BB
:1060D000E8FE03460028E7D101A90448FFF7B2FE15
:1060E0000346E1E7A69B167CA602007CA69A167CD6
:1060F00010B584B000230393029302A99520FFF703
:10610000C7FF044610B1204604B010BD029B23F423
:10611000003343F0207343F00103029302A995205A
:10612000FFF786FF04460028EDD103A91B20FFF7E7
:10613000AFFF04460028E6D1039B23F48C4303936E
:1061400003A91B20FFF774FF04460028DBD14FF0A2
:106150004063019301A94FF40C70FFF769FF0446F7
:106160000028D0D101A99420FFF792FF044600280F
:10617000C9D10346024A2021FFF71EFCC3E700BF36
:106180006400004C10B50C46FFF7FEFB208010BDEC
:1061900070B50E46FFF7F8FB01220B211046FEF703
:1061A0009DFA164C4FF4006363616420FEF7F8FA21
:1061B00001220D211046FEF791FA01220F2110460F
:1061C000FEF78CFA4FF4004363614FF400552561EC
:1061D00003220B210120FEF781FA3220FEF7E0FABC
:1061E000656101220D211046FEF778FA01220F2188
:1061F0001046FEF773FA0023338070BD000C014097
:1062000010B50C46FFF774FF208010BD10B50C468A
:10621000081DFFF7FBFD20800323638010BD0000F5
:1062200010B584B0044605F0E5F901900023ADF8FF
:106230000830ADF80A300123ADF80C30ADF80E305F
:1062400001A8FEF7BDF822464FF07C511820FEF75A
:10625000CBFC024B186004B010BD00BFE42100204D
:1062600010B50C464388042B03D04FF24000208029
:1062700010BD03881F2B06D8011D064840EA435075
:10628000FFF7E0FDF3E7011DA3F12000FFF7D0FECB
:10629000EDE700BFA69A167C4388042B03D04FF489
:1062A00070430B80704710B500881F280AD80C4631
:1062B0000431094B43EA4050FFF7F3FD20800423EB
:1062C000638010BD0C4604312038FFF7E1FE2080CA
:1062D00004236380F5E700BFA69B167C2DE9784771
:1062E0008A4644683CB3054655F8086B4FF00208EF
:1062F0004FF0040909E02A4649463046FFF742FEBE
:10630000043C0436043594B188B9032CF3D8012C2D
:1063100008D92A4641463046FFF734FE023C023691
:106320000235F0E72A4601213046FFF72BFEAAF896
:106330000000BDE878872046F9E72DE9704F8A46CE
:106340004668B6B30C1DD0F800800025A9464FF072
:10635000020B0BE0224604214046FFF7BFFD043547
:1063600008F104080434B54218D2B8B9A4F8009072
:10637000032EEFD8012E09D9224659464046FFF791
:10638000ADFD023508F102080234ECE72246012196
:106390004046FFF7A3FD237823800135AAF80000CB
:1063A00005F0010303EB55030233AAF80230BDE800
:1063B000708F35463046F1E710B50C4600F1080203
:1063C00041680068FFF7E0FB208010BD30B583B066
:1063D00004460D460368043B019301A92B48FFF7CF
:1063E00031FD20B14FF222032B8003B030BD284A8B
:1063F000936813F4804FFBD1254B4FF40040186194
:106400004FF400521A615A6100BF00BF00BF996883
:10641000C1F3803158611A615A6100BF00BF00BFEB
:106420009868C0F3803041EA40011A615A615A68A5
:1064300042F0004242F400025A60A3F5544348F28D
:106440000142DA601A46936813F0010FFBD0114B3A
:10645000DA680422DA601A46936813F0010FFBD061
:106460000C4BDB680A4A536823F0004323F4000313
:1064700053600329B6D162682168284601F040FFC5
:106480000028B2D04FF222032B80AEE7A69A367CCA
:10649000000C01400038004038B50D464388042BFD
:1064A00003D04FF20200288038BD436804883CB115
:1064B000012C0FD0022C17D04B880020044606E098
:1064C0001846FFF73FFB6B88002818BF00242344C1
:1064D0006B80E8E70289042AE3D100F10A0118463B
:1064E000FFF7B0FC0024EEE70289042AD9D1043179
:1064F0001846FFF7D6FCE6E72DE9704F84B0056833
:10650000436805EB03080123039383680293454521
:1065100072D2C368019306694EF6602A4FF00009F3
:106520002AE001464FF60170FEF7BAFB42E0FEF7A3
:1065300041F9002841D103A94B48FFF7B2FC0146BD
:10654000002840D1039B012B42D102A91A20FFF75A
:106550006FFD0146002840D15A4631460198FFF7A9
:1065600013FB014600283DD1FFF7C2FD014600287C
:106570003DD13544A8453FD931462846FEF752FB68
:1065800083460028CDD05046FEF7DCF8ADF80E90DB
:1065900003AC2046FFF73AFC014638B9039B002BB9
:1065A000C5D1FEF707F90028F3D0C0E74FF243004A
:1065B000FEF776FB04B0BDE8708F00214FF6FE7049
:1065C000FEF76EFBF6E74FF24300FEF769FBF1E7DB
:1065D0004FF21200FEF764FBECE74FF24300FEF7C8
:1065E0005FFBE7E74FF24300FEF75AFBE2E74FF2AB
:1065F0001100FEF755FBDDE70023ADF80E304EF637
:106600006020FEF79FF803AC2046FFF7FFFB014632
:1066100020BB039B1BB9FEF7CDF80028F4D0FEF792
:10662000C9F880B903A91048FFF73BFC014680B9BF
:10663000039B012B19BF01464FF2120000210846AF
:10664000FEF72EFBB6E700214FF6FE70FEF728FBA3
:10665000B0E74FF24300FEF723FBABE74FF24300F6
:10666000FEF71EFBA6E700BFA69B767C10B5FFF7E2
:106670008BF901220D211046FEF730F801220F217F
:106680001046FEF72BF80E4C4FF4004323614FF4F5
:106690000053636101220B211046FEF71FF84FF4EF
:1066A000006363616420FEF77BF803220B21012065
:1066B000FEF714F86420FEF773F8FEF770FA10BDC9
:1066C000000C0140034601280BD04FF6FF729042A8
:1066D0000AD04FF223004FF22202002B18BF1046BF
:1066E00070474FF2200070474FF2210070470000C2
:1066F000084906E0013A09D08B6803F480538342CD
:10670000F8D0886800F480500522F5E7003818BFFB
:1067100001207047000C014008B503220B21012025
:10672000FDF7DCFF03220D210120FDF7D7FF022238
:106730000C210120FDF7D2FF00220F210120FDF7DF
:10674000CDFF00220E210120FDF7C8FF002008BD6B
:1067500010B5134C00232360204601F0E8FE4FF4EF
:1067600040632360204601F0E2FE0E4B5C680E4B56
:106770001A680E4BA3FB02329209642303FB02F258
:106780000B4908488B6813F4805F06D043681B1BD5
:106790009342F7D94FF2110000E0002010BD00BF76
:1067A00020220020001000E004000020D34D6210E1
:1067B000000C0140F8B50E4B5F680E4C00250E4EE4
:1067C0002560204601F0B3FE23882360844668B12B
:1067D00063B9074B5A68D21B084B1B68A6FB03130F
:1067E0009B09322101FB03F39A42E9D36046F8BDCD
:1067F000001000E020220020D34D62100400002091
:10680000F8B504460D4617461548046001F08FFEA2
:1068100004F47E43B3F5C05F0FD014F0800F18D19D
:106820000F483B88036001F082FEFFF7C3FF18B1F9
:106830000B4B1888FFF746FFF8BD2B0C084A16468D
:106840001360104601F073FE3560304601F06FFEB4
:10685000E3E703487B88036001F069FEE0E700BFDF
:1068600020220020F8B504460D461746174804605C
:1068700001F05DFE04F47E43B3F5C05F0FD014F069
:10688000800F05D0FFF796FFA8B9104B1B687B80DF
:10689000FFF790FFA0B90D4B1B683B80F8BD2B0C98
:1068A0000A4A16461360104601F041FE3560304634
:1068B00001F03DFEE3E7054B1888FFF703FFEDE726
:1068C000024B1888FFF7FEFEE8E700BF20220020F9
:1068D00010B50C46FFF720FF208010BD2DE9F041D8
:1068E000884601220D211046FDF7F8FE01220F21F6
:1068F0001046FDF7F3FE1A4B4FF400525A61022086
:10690000FDF74EFF022501270B26154C3A4631466E
:106910003846FDF7E3FE4FF4006363611920FDF78D
:106920003FFF032231463846FDF7D8FE4FF4FA7098
:10693000FDF708FFA36813F4805F03D1FDF73AFF6A
:106940000028F7D0A36813F4805F07D1013DDDD1A3
:106950004FF21003A8F80030BDE8F0810023F9E7FA
:10696000000C014038B50D46164B9B6813F4805F50
:1069700002D000232B8038BD01220D211046FDF7E7
:10698000ADFE01220F211046FDF7A8FE0D4B4FF47E
:1069900000525A616420FDF7D5FE0A4CA36813F437
:1069A000805F03D1FDF706FF0028F7D0054B9B68F9
:1069B00013F4805FDDD1034B4FF400521A614FF2A4
:1069C0001003D7E7000C014038B50D46FFF7A4FED1
:1069D000174C4FF40053236101220D211046FDF79F
:1069E0007DFE01220B211046FDF778FE4FF4006377
:1069F00063611920FDF7D4FE03220B210120FDF76E
:106A00006DFE4FF4FA70FDF79DFEA36813F4006F5E
:106A100003D1FDF7CFFE0028F7D0054B9B6813F498
:106A2000006F4FF2110318BF00232B8038BD00BF49
:106A3000000C014010B50C46FFF78AFE208010BD07
:106A400010B50C4600230B8003234B80FFF750FE4C
:106A5000A08010BD00B5114B1A68114BA3FB023288
:106A6000920C02FB00F30F48A0FB03C3DB090133C8
:106A7000DFF834E0DEF804C09C4538BF9C46CEF811
:106A80001CC0DFF828C0CCF8243002FB01F1A0FBC9
:106A90000101C9090131CCF8341000BD0400002007
:106AA00083DE1B43F119760520220020E821002017
:106AB000F0B585B0074604F09DFD01900123ADF8C7
:106AC0000830ADF80A30ADF80C30ADF80E3001A842
:106AD000FDF776FC124C134AE260134B2361134915
:106AE00061611348A060A0F55340F8386060043835
:106AF0002060104D6961104EAE60EA602B613A462D
:106B00004FF07C511820FEF76FF8686026634FF451
:106B10007A7140F2DC50FFF79DFF05B0F0BD00BF79
:106B2000E8210020140C0140080C0140041000E092
:106B3000040C014020220020100C01402DE9F843F4
:106B40008946446844B3054655F8086B4FF4C2576C
:106B50004FF4C45809E02A4631464046FFF750FE3C
:106B6000043C043604359CB190B9032CF3D8012CB5
:106B700008D92A4631463846FFF742FE023C023623
:106B80000235F0E72A4631464FF4C050FFF738FE91
:106B9000A9F80000BDE8F8832046F9E72DE9F8439D
:106BA00088464768B7F5FE6F13D82FB10D1D0668EC
:106BB00000244FF4CA591DE03C463846A8F80000AE
:106BC00004F0010303EB54030233A8F80230BDE8DC
:106BD000F8834FF202030B80F9E72A4631464FF45F
:106BE000CC50FFF73FFE043404360435BC42E5D2F6
:106BF0000028E3D13B1B032BEFD8012B08D92A46F1
:106C000031464846FFF72EFE023402360235EDE7E4
:106C10002A4631464FF4C850FFF724FE2B7825F85A
:106C2000023B01340136E1E7F8B50E464468F4B1A1
:106C3000074614F0030F1AD1024652F8081B4FF40E
:106C4000C450FFF7DDFD0546043C13D090B90A4857
:106C50003B460C33C361A4080462084BC36201F0D5
:106C60000FFD38B180B2FFF72DFD054602E04FF26F
:106C700002031D463580F8BDE8210020A0860100F2
:106C80002DE9F84F0C4645683DB115F0030F04D1CE
:106C9000066816F001039B460ED003680522228089
:106CA000502262804FF20202A280C4F806302046D1
:106CB000FDF7E9FABDE8F88F01F10A0231464FF419
:106CC000CC50FFF7CFFD60B9AF19042D14D8BE42E8
:106CD000F0D201234FF48065DFF8AC804FF0500A0A
:106CE00021E00522228050226280A080C4F8066044
:106CF0002046FDF7C8FADDE724484FF4EC53036063
:106D000001F015FCE3E76B0805332380A4F802A02B
:106D10000023A380C4F806602046FDF7B4FA2E4491
:106D2000B742C7D95B46BA1B954228BF1546D3EB7D
:106D30009502E8D004EB83030A33C8F81C30C8F886
:106D4000202005EB06094F4594BF00230123C8F816
:106D500028300F4BC8F82C30404601F030FC00289A
:106D6000D1D080B2FFF7AEFC074B1B6AA9EB8303BF
:106D70000522228050226280A080C4F8063020467E
:106D8000FDF781FA96E700BFE821002020220020CD
:106D9000A086010010B50C46B0F800C02CF4816349
:106DA00023F00703B3F5025F03D04FF470430B8069
:106DB00010BD4388042B03D04FF240030B80F7E74C
:106DC000021D00216046FFF71BFD20800223638027
:106DD000EEE7B0F800C02CF4816323F00703B3F5AD
:106DE000065F03D04FF470430B8070474388042B39
:106DF00003D04FF240030B80704710B50C460A1DBC
:106E000000216046FFF72EFD20800423638010BD23
:106E10002DE9F04782B00568436805EB03098368F4
:106E200000934D4580F08180D0F80CA0D0F8108000
:106E3000554EA8F10407BF0829E001464FF601703E
:106E4000FDF72EFF02B0BDE8F08700214FF6FE707F
:106E5000FDF726FFF6E74FF24300FDF721FFF1E7CC
:106E60004FF21200FDF71CFFECE74FF24300FDF775
:106E700017FFE7E74FF24300FDF712FFE2E7FFF7E6
:106E800067FC014600284BD14544A9454DD94146F0
:106E90002846FDF7C7FE04460028CED04EF66020F7
:106EA000FDF750FCFFF724FC30B9FDF783FC18B95F
:106EB000FFF71EFC0028F8D0FDF77CFC0028C4D1A9
:106EC00001AA01464FF40650FFF7CCFC014600280A
:106ED000C1D1019B012BC3D16A4600214FF412504E
:106EE000FFF78EFC01460028BFD1224651464FF4E1
:106EF000C450FFF785FC01460028BBD10434F4617F
:106F00003762224BF362002FB9D0304601F0B8FB54
:106F10000028B4D000214FF24300FDF7C1FE91E7F5
:106F20004FF21100FDF7BCFE8CE74EF66020FDF736
:106F300009FCFFF7DDFB30B9FDF73CFC18B9FFF7A2
:106F4000D7FB0028F8D0FDF735FC90B901AA01461F
:106F50004FF40650FFF786FC014680B9019B012BD8
:106F600019BF01464FF2120000210846FDF798FEB6
:106F700068E700214FF6FE70FDF792FE62E74FF2E0
:106F80004300FDF78DFE5DE7E8210020A0860100AB
:106F900038B568B1094B4FF480621A61074C4FF461
:106FA00000552561064B186801F0E4F8656138BDAD
:106FB000024B4FF480625A61F0E700BF000C0140C1
:106FC0004022002038B5802401252846FFF7E0FF45
:106FD000013CFAD10020FFF7DBFF0020FFF7D8FFCC
:106FE000002038BD68B32DE9F843894607460024E0
:106FF0002646144D4FF4005819E016F0010F4FF4D7
:10700000004314BF2B616B617B1EA34204BF4FF48E
:1070100080632B61C5F810800B4B186801F0AAF84B
:107020007608AB68C5F814800134BC4207D014F070
:107030001F0FE2D1494651F8046B8946DDE7BDE8F0
:10704000F8837047000C0140402200202DE9F04FEA
:1070500083B00191224B4FF400425A6100283CD08A
:1070600081460024274600F1FF3A1E46DFF874B03F
:107070001CE04FF4806333614FF40058C6F8108071
:10708000DBF8000001F076F8B368C3F3803305F055
:107090001F0503FA05F52F43C6F81480019B43F83A
:1070A000047B019300270134A14516D0A5B2A24567
:1070B000DFD04FF40058C6F81080DBF8000001F074
:1070C00059F8B36805F01F05C3F38033AB401F4385
:1070D000C6F814801F2DE6D1E0E703B0BDE8F08FBD
:1070E000000C01404022002008B502464FF07E51BE
:1070F0001020FDF779FD014B186008BD40220020EB
:1071000010B50C4603220B210120FDF7E7FA0022FF
:107110000D210120FDF7E2FA00220F210120FDF7E9
:10712000DDFA00220E210120FDF7D8FA00220A2103
:107130000120FDF7D3FA002209210120FDF7CEFA44
:107140003220FDF72DFB0023238010BD38B50D46FE
:1071500001220B211046FDF7C1FA194C4FF40063D0
:1071600063610520FDF71CFB01220D211046FDF790
:10717000B5FA01220F211046FDF7B0FA00220E21C8
:107180000120FDF7ABFA01220A211046FDF7A6FA0D
:10719000012209211046FDF7A1FA4FF40073236183
:1071A0004FF40043636103220B210120FDF796FA9F
:1071B0004FF4FA70FDF7F4FAFFF704FF288038BDAA
:1071C000000C014010B50C46FFF7FCFE208010BDFE
:1071D00038B5044600230B8003882BB1012B1CD04B
:1071E0004FF470430B8017E043881D460120FFF7E2
:1071F000CFFE0120FFF7CCFE0020FFF7C9FE0020E4
:10720000FFF7C6FE211D2846FFF7ECFE0120FFF721
:10721000BFFE0020FFF7BCFE38BD43881D4601209D
:10722000FFF7B6FE0020FFF7B3FE0020FFF7B0FE29
:10723000211D2846FFF7D6FE0120FFF7A9FE0020FA
:10724000FFF7A6FEE8E738B50C4600230B8042881E
:1072500012F00F0318BF012303EB121302334B800C
:1072600003882BB1012B1CD04FF470430B8017E027
:1072700043881D460120FFF78BFE0120FFF788FEA3
:107280000020FFF785FE0020FFF782FE211D284623
:10729000FFF7DCFE0120FFF77BFE0020FFF778FE02
:1072A00038BD43881D460120FFF772FE0020FFF71E
:1072B0006FFE0020FFF76CFE211D2846FFF7C6FE7B
:1072C0000120FFF765FE0020FFF762FEE8E70000FF
:1072D000144B1A7812F0080F4FF2220318BF002344
:1072E00012F0100F4FF2220118BF0B4612F0200FC0
:1072F00018BF0B4612F0400F18BF0B4612F0800F5C
:1073000018BF0B46074A527812F0010F4FF24201A4
:1073100018BF0B4612F0020F4FF2220018BF18469A
:10732000704700BF4422002038B568B1094B4FF4C4
:1073300080621A61074C4FF400552561064B1868AE
:1073400000F018FF656138BD024B4FF480625A614E
:10735000F0E700BF000C01404822002038B541246E
:1073600001252846FFF7E0FF013CFAD10020FFF796
:10737000DBFF0020FFF7D8FF002038BD60B32DE908
:10738000F8438946074600242546144E4FF400581A
:1073900018E015F0010F4FF4004314BF336173611F
:1073A0007B1EA34204BF4FF480633361C6F8108094
:1073B0000B4B186800F0DEFE6D08C6F8148001342F
:1073C000BC4207D014F01F0FE3D1494651F8045BCB
:1073D0008946DEE7BDE8F883704700BF000C014036
:1073E0004822002038B505460C460120FFF79CFFD7
:1073F0000120FFF799FF0020FFF796FF0020FFF71D
:1074000093FF21462846FFF7B9FF0120FFF78CFFC5
:107410000020FFF789FF38BD38B505460C4601202E
:10742000FFF782FF0020FFF77FFF0020FFF77CFFC0
:1074300021462846FFF7A2FF0120FFF775FF002035
:10744000FFF772FF38BD10B582B00C46400040F027
:1074500001008DF807000DF107010820FFF7DCFFA0
:1074600021462020FFF7D8FF02B010BD2DE9F04FD4
:1074700083B0ADF804000120FFF756FF0120FFF7AD
:1074800053FF0020FFF750FF0020FFF74DFF0024BF
:10749000A04601AB9B46224D4FF40049DFF884A083
:1074A00018E016F0010F14BFC5F81090C5F814903D
:1074B000092C17D04FF400572F61DAF8000000F0C4
:1074C00059FEAB68C3F38033A34048EA030876084B
:1074D0006F610134A3B2002BE3D15B4653F8046B18
:1074E0009B46DEE70E4D4FF480632B614FF4005650
:1074F0002E610C4B186800F03DFEAB686E61C3F363
:107500008033A34043EA0803074A13600120FFF7D2
:107510000BFF0020FFF708FF03B0BDE8F08F00BFAE
:10752000000C014048220020442200202DE9F04FA9
:1075300083B00191224B4FF400425A6100283CD0A5
:1075400081460024274600F1FF3A1E46DFF874B05A
:107550001CE04FF4806333614FF40058C6F810808C
:10756000DBF8000000F006FEB368C3F3803305F0DB
:107570001F0503FA05F52F43C6F81480019B43F855
:10758000047B019300270134A14516D0A5B2A24582
:10759000DFD04FF40058C6F81080DBF8000000F090
:1075A000E9FDB36805F01F05C3F38033AB401F430B
:1075B000C6F814801F2DE6D1E0E703B0BDE8F08FD8
:1075C000000C01404822002038B505460C46012039
:1075D000FFF7AAFE0020FFF7A7FE0020FFF7A4FE9A
:1075E00021462846FFF7A2FF0120FFF79DFE00205D
:1075F000FFF79AFE38BD30B583B00D4614469DF8AE
:10760000043060F3060323F080038DF804309DF806
:10761000053003F0FE0343F002038DF805300198B6
:10762000FFF724FF680180B22146FFF7CDFF9DF8E8
:107630000430112262F306038DF804300198FFF73D
:1076400015FF69462020FFF7BFFF03B030BD0000E3
:1076500070B582B006460D469DF80430102060F3E8
:10766000060323F080038DF804309DF8053043F0C5
:10767000010323F002038DF80530094C2246062150
:10768000FFF7B9FFE5602661002363610198FFF70A
:10769000EDFE2146C020FFF7BFFE02B070BD00BF67
:1076A0004C22002030B583B00D4614469DF80430BE
:1076B00060F3060323F080038DF804309DF8053055
:1076C00003F0FE0323F002038DF805300198FFF765
:1076D000CDFE680180B22146FFF79EFE9DF8053081
:1076E00043F002038DF805309DF80430112262F357
:1076F00006038DF804300198FFF7B8FE6946202094
:10770000FFF762FF03B030BD2DE9F04782B00746B6
:107710000C4616460023019315228DF8032001091B
:107720006FF03F0261F3C5028DF8072064F38F0309
:10773000ADF8043001AD29460720FFF784FE0E2383
:107740008DF802300DF102010820FFF765FE294691
:107750002020FFF739FF9DF8043013F0020F37D1D6
:107760007CB34FEAD708013CA4B24FF001090025D1
:107770000DF1030A4846FFF7D7FD2846FFF7D4FD71
:107780002846FFF7D1FD51460820FFF7F7FD484690
:10779000FFF7CAFD4846FFF7C7FD2846FFF7C4FDBF
:1077A0002846FFF7C1FD31463846FFF7E7FD46445E
:1077B0004846FFF7B9FD013CA4B24FF6FF739C4267
:1077C000D8D10020FFF7B0FD002002B0BDE8F0875F
:1077D00003F00100C0F57040423080B2F5E72DE9BA
:1077E000F04F85B080460C46924600230393142246
:1077F0008DF80B2001096FF07F0261F3C5028DF84F
:107800000F2064F38F03ADF80C3003AD2946072039
:10781000FFF719FE0E238DF80A300DF10A0108203A
:10782000FFF7FAFD29462020FFF7CEFE9DF80C3029
:1078300013F0020F40D1ACB34FEAD809013CA3B218
:1078400001931C465746012600250DF10B0B3046CF
:10785000FFF76AFD2846FFF767FD2846FFF764FD3E
:1078600059460820FFF78AFD3046FFF75DFD304698
:10787000FFF75AFD2846FFF757FD2846FFF754FD4E
:1078800039464046FFF752FE4F443046FFF74CFD65
:10789000013CA4B24FF6FF739C42D8D1CA44019B6D
:1078A00009FB03AA00248AF800402046FFF73CFDAC
:1078B000204605B0BDE8F08F03F00100C0F5704030
:1078C000423080B2F5E7000010B502460C464FF09A
:1078D0007E511020FDF788F9024B1860024B1C7096
:1078E00010BD00BF482200200000002030B585B048
:1078F0000D464FF470430B803B4B1B78012B03D09C
:10790000032B1AD005B030BD11238DF808304FF08D
:107910000004ADF80C40FFF721FD02A90520FFF798
:1079200061FD9DF80C307E2262F306038DF80C3069
:107930000398FFF79BFD2C80E4E711238DF80330BB
:107940004FF00003ADF8043000230293274B4FF0B3
:1079500000041C80FFF702FD0DF103010520FFF775
:1079600041FD9DF804307E2262F306038DF8043059
:107970000198FFF77BFD03AA01211220FFF73BFED0
:10798000039B43F4004343F00703039303AA01213D
:107990001220FFF787FE9DF80B3043F080038DF82F
:1079A0000B3002AA01213120FFF77CFE9DF80B303D
:1079B000022262F305138DF80B309DF8083043F076
:1079C00001038DF8083002AA01213120FFF76AFE79
:1079D0009DF804307C2262F306038DF80430019890
:1079E000FFF744FD2C808DE700000020442200209A
:1079F00030B587B00C460388102B1AD04288042A71
:107A000001D0012B1CD8002323800423638003882A
:107A1000162B00F29780DFE803F01739479595950C
:107A2000959595959595959595954F59636D778114
:107A30008B004388182BE6D04FF202030B8086E0C0
:107A40004FF202030B8082E0428812F00F0318BF4E
:107A5000012303EB12130233638043881D46012088
:107A6000FFF762FC0120FFF75FFC0020FFF75CFCE2
:107A70000020FFF759FC211D2846FFF757FD012084
:107A8000FFF752FC0020FFF74FFC60E0428812F045
:107A90000F0318BF012303EB121302336380211D70
:107AA0004088FFF791FD52E0221D01210220FFF7DF
:107AB000A2FD002323804AE0221D06211020FFF7AB
:107AC0009AFD002323800E23638040E06A4606214E
:107AD0001020FFF790FD059B63600023238036E0B4
:107AE0006A4606211020FFF786FD049B6360002391
:107AF00023802CE06A4606211020FFF77CFD039BC3
:107B000063600023238022E06A4606211020FFF7ED
:107B100072FD029B63600023238018E06A46062101
:107B20001020FFF768FD019B6360002323800EE0B7
:107B30006A4606211020FFF75EFD009B636000236C
:107B4000238004E04FF4704323800223638007B056
:107B500030BD30B587B004460D460388102B18D0D1
:107B60004288042A01D0012B1BD800232B802388B4
:107B7000162B00F28680DFE803F0181D84848484CD
:107B800084848484848484848484222A3948576643
:107B900075004388182BE8D04FF202030B8007B022
:107BA00030BD4FF202030B80F9E7211D6088FFF71B
:107BB00019FCF4E7211D6088FFF72EFCEFE7221D7A
:107BC00006211020FFF76EFD00232B80E7E76A46B1
:107BD00006211020FFF70FFD636805936A46062112
:107BE0001020FFF75FFD00232B80D8E76A460621AF
:107BF0001020FFF700FD636804936A4606211020F9
:107C0000FFF750FD00232B80C9E76A4606211020AC
:107C1000FFF7F1FC636803936A4606211020FFF723
:107C200041FD00232B80BAE76A4606211020FFF7AA
:107C3000E2FC636802936A4606211020FFF732FDDA
:107C400000232B80ABE76A4606211020FFF7D3FC08
:107C5000636801936A4606211020FFF723FD002385
:107C60002B809CE76A4606211020FFF7C4FC63685E
:107C700000936A4606211020FFF714FD00232B8095
:107C80008DE74FF470432B8089E738B545684FF294
:107C900002030B806B1E1F2B00D938BD0C4601461A
:107CA0000920FFF7D0FB15F0030F14D015F0010FDA
:107CB00004F1040219BFA9B20820C5F34F01102036
:107CC000FFF78DFD2080638860B90135C5F34F054E
:107CD0002B446380E1E7221DC5F38F012020FFF7CD
:107CE0007EFDEFE70025F3E770B546684FF202032B
:107CF0000B8002234B80731E1F2B00D970BD0546DD
:107D00000C4601460920FFF79EFB16F0030F0DD02D
:107D100016F0010F05F1080219BFB1B20820C6F331
:107D20004F011020FFF7F0FC2080E7E705F1080283
:107D3000C6F38F012020FFF7E7FC2080DEE700007C
:107D400030B583B00C464388042B04D04FF20200B8
:107D5000208003B030BD436802881546AAB9028965
:107D6000042AF3D1D0F80A101846FFF771FC01AAD3
:107D700001211120FFF73FFCFFF7AAFA63880028D2
:107D80002A4618BF0022154604E0022A05D04B8877
:107D9000002005462B446380DAE7C1680289154656
:107DA000042A16D0082AD1D14289042ACED11846F5
:107DB000FFF74EFC0E4A06211020FFF71CFC0C4A70
:107DC000136863605368A360FFF782FA6B081D466F
:107DD000D4E74289042AB9D11846FFF739FC044A8E
:107DE00006211020FFF707FC014B1B686360EBE7DF
:107DF0004C22002030B583B0054680F47F4383F0E9
:107E0000FF03ADF80630224B1B6813F0200F03D0A0
:107E10001F4B5B68ADF806301D4B5D601A4613685A
:107E200013F0800FFBD04FF4FA70FCF78BFC184C6A
:107E3000236813F0200F03D1FCF7BCFC0028F7D017
:107E4000FCF7B8FC18B9124B5B68ADF80630BDF80A
:107E500006309D420FD14FF4FA70FCF773FC0C4CC6
:107E6000236813F0200F03D1FCF7A4FC0028F7D0FF
:107E7000FCF7A0FC18B14FF6FF7003B030BD044B07
:107E8000586880B2401B18BF4FF0FF3080B2F4E753
:107E90000038014070B588B00446554BD3F804183B
:107EA000544B93FAA3F3B3FA83F39B000F2202FA25
:107EB00003F321EA03014F4A92FAA2F2B2FA82F2E4
:107EC0009200042393400B434B4A92FAA2F2B2FA77
:107ED00082F292000F2101FA02F223EA02034649DC
:107EE00091FAA1F1B1FA81F1890009228A401A437D
:107EF000414B93FAA3F3B3FA83F39B00032101FAF6
:107F000003F322EA03023C4991FAA1F1B1FA81F1AB
:107F1000890003238B401343374A92FAA2F2B2FA44
:107F200082F29200042101FA02F223EA0203324AA9
:107F300092FAA2F2B2FA82F22D4D920001FA02F206
:107F40001343C5F804380DEB0106304600F02EFD52
:107F500001942A4CE36823F40053E3603146204641
:107F600000F0C8FCE36843F40053E360D5F804185C
:107F7000234B93FAA3F3B3FA83F39B000F2202FA85
:107F800003F321EA03011E4B93FAA3F3B3FA83F33D
:107F90009B0009229A400A43194B93FAA3F3B3FAC0
:107FA00083F39B00032101FA03F322EA030214493D
:107FB00091FAA1F1B1FA81F1890003238B401343B7
:107FC0000F4A92FAA2F2B2FA82F29200042101FA66
:107FD00002F223EA0203C5F8043805F58832536833
:107FE00023F0E06343F0C063536008B070BD00BF8E
:107FF00000000140040004040200020400380140B3
:108000000100010470B50E4603220B210120FCF78C
:1080100065FB01220B211046FCF760FB064C4FF478
:10802000006565613220FCF7BBFB25613220FCF75F
:10803000B7FB0023338070BD000C014010B50C4627
:1080400003220B210120FCF749FB0023238010BDF4
:108050002DE9F843884605684668B5F5803F05D0A8
:1080600086B1841DAB199946492623E0841D4EB183
:1080700034F8020FC0B2FFF7BDFE013E23D0002846
:10808000F6D020E000201EE0C5F30720FFF7B2FE87
:10809000B8B9E8B2FFF7AEFE98B90135F8B2FFF70C
:1080A000A9FE0346003818BF0120404280B24D456A
:1080B00009D043B934F8027F3046FFF79BFE002811
:1080C000E2D04FF6FF70A8F80000BDE8F88300008A
:1080D0002DE9F04F83B08A464568002D46D00668EA
:1080E0008B1C9B46731901933446C6F101064FF071
:1080F0004A0935194846FFF77DFE68B14FF6FF770C
:10810000AAF8007005F0010303EB55030233AAF847
:10811000023003B0BDE8F08FC4F30720FFF76AFE1A
:108120000028EBD1E0B2FFF765FE07460028E5D155
:108130004FF4FA70FCF706FBDFF83480D8F8003013
:1081400013F0200F03D1FCF735FB0028F6D0FCF725
:1081500031FB0028D2D10134054B5B685A4622F826
:10816000023F9346019B9C42C3D1C9E72F46C7E714
:1081700000380140044B1B681A681968891A81424B
:10818000FBD47047041000E0848100088269C36951
:10819000012424051D68154025431D607047826930
:1081A000C369062424051D68154025431D607047DA
:1081B00072B6FEB5476806682025ED1BAE40FFF796
:1081C000E5FF026A20231B0213608268C36A1C68F1
:1081D0001D682D1B9542FBD4361C04D4026A202353
:1081E0001B02136003E0426A20231B021360C26873
:1081F000C36A1C681D682D1B9542FBD4426A20236C
:108200001B0213600269C36A1C681D682D1B95421E
:10821000FBD47600013FD4D162B6FFF7C0FFFEBCAD
:1082200001BC004772B6FEB547680026FFF7B7FFEE
:10823000026A20231B0213608268C36A1C681D68DF
:108240002D1B9542FBD4426A20231B021360426916
:10825000C36A1C681D682D1B9542FBD4826A0123EA
:108260001268520B1A40760016434269C36A1C68B2
:108270001D682D1B9542FBD4013FD9D162B6066023
:10828000FEBC01BC00470000000000000000000030
:1082900000000000000000000000000000000000DE
:1082A00000000000000000000000000000000000CE
:1082B00000000000000000000000000000000000BE
:1082C00000000000000000000000000000000000AE
:1082D000000000000000000000000000000000009E
:1082E000000000000000000000000000000000008E
:1082F000000000000000000000000000000000007E
:10830000F0B58BB08008800002300890069192088A
:1083100007928449CA680B691E688D6835430095C9
:10832000012517686FF3000702972F4303975769DA
:108330006FF3000704972F4305972D020A9500BF9E
:108340000A9D079FBD4200DD3D1C09957F1B0797D5
:108350006F000537078002305024069F10C0076069
:10836000AD007F19069700BFAFF30080AFF3008028
:1083700002270430D060576011629761039C14603B
:10838000C0465F797F06FCD4C04680241C7320273A
:108390001F73A0241C74C046C046C0465C791F737E
:1083A0001F74A4095D791F731F746D092C43009F0E
:1083B0001F60059F57615768002FFCD1C046029F80
:1083C0001760049F57611E60032C40D102270D1DCA
:1083D000D060576015629761039C14605F797F06D7
:1083E000FCD4C04680241C7320271F73A0241C7457
:1083F000C046C046C0465C791F731F74A4095D79EE
:108400001F731F746D092C43009F1F60059F5761E8
:108410005768002FFCD1C046029F1760049F576128
:108420001E60A4B9C046C046099F013F09979FD16D
:1084300008980FB4FBF727FF00280FBC07D1079F50
:1084400007B17DE740400BB0F0BC02BC0847FF20FD
:108450000BB0F0BC02BC0847F0B587B08908314FBB
:10846000FA683B691E68BD6835430095BF69069789
:10847000012517686FF3000702972F430397576989
:108480006FF3000704972F43059700BFAFF30080F9
:1084900002271062043097615F797F06FCD4802543
:1084A0001D7320271F73A0241C74C046C046C046FD
:1084B0005C791F731F741D7364085D791F731F74CB
:1084C0002C436FF3C714009F1F60059F5761976986
:1084D000002FFCD18025069F3F882F40FBD1049FB1
:1084E00057611E60592C08DD0139D1D180251D74DA
:1084F000404007B0F0BC02BC084780251D74FF2037
:1085000007B0F0BC02BC0847167CA69B018404009F
:108510000000808044000240040C014014600040D0
:108520000838004008850008013AFDD17047FEB5C3
:1085300010270668F603C268A0231370C046C269FC
:10854000FFF7F2FF026952789209026952789209A4
:10855000151C826820231370C0464268FFF7E4FFB1
:10856000026952789209026952789209C046C2683B
:1085700020231370760003D582688023137004E0F3
:10858000C26880231370C046C0464268FFF7CCFF24
:108590000269527892091643826820231370026997
:1085A000527892094268FFF7BFFF02695278920938
:1085B000013FDCD10660281CFEBC02BC0847F0B5B8
:1085C00084682568C769C268A023137080263602B4
:1085D0008022164336042E43426AFFF7A5FF026944
:1085E000527892092660111C0023426813800123EF
:1085F00006683688DE41FBD5026B20231370012309
:10860000426816882560D9412DD47E80C268A02397
:108610001370802636028022164336042E431D2313
:108620001B021343026A012A03D1826A002A00D185
:108630000023266042681380012306683688DE41E5
:10864000FBD5026B20231370012342681688256036
:108650003E800437426BFFF767FF026A013A02620D
:10866000B1D1002009E0002E04D1C26A013AC262F1
:1086700000D0A8E7012000043043F0BC02BC08474A
:10868000F0B584682568C769C268A0231370802686
:1086900036028022164336042E43426AFFF744FF17
:1086A0000269527892092660111C1C231B02802249
:1086B000134342681380012306683688DE41FBD5E8
:1086C000026B202313700123426816882560D9416C
:1086D0005DD4C268A0231370802636028022164320
:1086E00036042E4326607B88426813800123066887
:1086F0003688DE41FBD5026B2023137001234268CC
:1087000016882560C268A023137080263602802256
:10871000164336042E4326603B88426813800123AB
:1087200006683688DE41FBD5026B202313700123D7
:108730004268168825600437426BFFF7F5FE026A2F
:10874000013A0262A0D1C268A023137080263602CB
:108750008022164336042E43426AFFF7E5FE026983
:10876000527892092660111C00234268138001236D
:1087700006683688DE41FBD5026B20231370012387
:10878000426816882560D94108D4002010E0002EE8
:108790000BD1C26A013AC26207D075E7002E04D13C
:1087A000C26A013AC26200D0CDE701200004304322
:1087B000F0BC02BC08477047034B5B68C3F303136C
:1087C000024AD35CD84070470010024000B800084D
:1087D000034B5B68C3F30223024AD35CD840704763
:1087E00000100240F8B70008034B5B68C3F3C223D4
:1087F000024AD35CD840704700100240F8B7000826
:108800000B4B5B6813F4803F08D10A48084B5B6848
:10881000C3F38343023303FB00F07047044B5B68F0
:10882000C3F3404301330448B0FBF3F0EEE700BF6D
:108830000010024000093D0000127A0008B5054B07
:108840005B6803F00C03082B01D0034808BDFFF759
:10885000D7FFFBE70010024000127A0038B504464B
:10886000FFF7ECFF2060FFF7A7FF05466060FFF70A
:10887000AFFFA0602846FFF7B7FFE06038BD036890
:1088800013F0400F27D110B402680B684C682343E3
:108890008C682343CC6823430C6923434C692343EE
:1088A0008C692343CC6923430C6A234322F47F421F
:1088B00022F0BF02134303604268CB8A22F0040215
:1088C000134343600B6AB3F5005F04BF8B8C0361F5
:1088D000002010BC704701207047002303604360F4
:1088E0008360C360036143618361C36103620723E3
:1088F00043627047C36813F4005F01D001207047E2
:1089000030B585B004460D46C2684B68C9680B4354
:1089100029690B4322F4B05222F00C021343C360C6
:10892000036923F44053AA6813430361436923F4A2
:1089300040736A69134343616846FFF78FFF174B23
:108940009C4208D0164B9C4224D0164B9C4223D00C
:10895000012005B030BD039B002BF9D02A68002A06
:10896000F6D003EB830303EB83039200B3FBF2F334
:108970000D49A1FB03025209642000FB12331B01C5
:108980003233A1FB0313120102EB53139BB2A3601A
:108990000020DEE7029BDFE7029BDDE700380140B5
:1089A00000440040004800401F85EB514FF416532F
:1089B0000360002343608360C3600C220261436153
:1089C00070470000014B1860704700BF0400002092
:1089D000404B984218D03F4BD3F8802022F0010240
:1089E000C3F880200022C3F88020C3F88420C3F895
:1089F0008820C3F88C200139062923D8DFE801F04C
:108A00002E3C4957651A1E0001291DD0022929D084
:108A1000032934D0042940D005294CD00629DAD1C5
:108A20002C4BDA6E22F00102DA660022DA661A674F
:108A30005A679A674FF48013436011E04FF08073D8
:108A400043600DE001207047224B9A6822F001023A
:108A50009A6000229A60DA601A615A6101234360C9
:108A6000002070471B4BDA6922F00102DA61002214
:108A7000DA611A625A629A6210234360F0E7154B7A
:108A80001A6B22F001021A6300221A635A639A6376
:108A9000DA634FF480734360E2E70E4B5A6C22F0C6
:108AA00001025A6400225A649A64DA641A654FF427
:108AB00080534360D4E7074B9A6D22F001029A6518
:108AC00000229A65DA651A665A664FF4803343606D
:108AD000C6E700BF0000024010B5134B0B4413F86B
:108AE00001CC00EB0C0150F80CE09368D4682343F0
:108AF000146923435469234394692343D46923436A
:108B0000546A23436FF30E1E43EA0E0340F80C3001
:108B10005368CB6013688B604B686FF30F03126A66
:108B200013434B60002010BD10B800080023036001
:108B300043608360C360036143618361C361036217
:108B400043627047817841B108B543780BB100208A
:108B500008BD007800F0E6FDFAE700207047437892
:108B6000CBB900B583B0826862B100294FF0000331
:108B700000930B4608BF00228178007800F0F2FDD8
:108B800003B000BD00920B4600F10C028178007822
:108B900000F0BAFEF4E700207047000008B5012895
:108BA00007D80B782BB10E4A1354012B0BD00120A0
:108BB00008E04FF0E023D3F8F03D13F0010F00D0B0
:108BC00000BE002008BD00F0D5FB0028FAD14FF010
:108BD000E023D3F8F03D13F0010FF3D000BEF1E72E
:108BE00064220020037813F0050F09D1037813F0F5
:108BF000050F05D1037843F004030370012070478B
:108C0000002070470346027802F00502042A0CBFD8
:108C10000120002000D070471A7802F0FB021A7081
:108C2000F9E730B515461C46039BBDF810C09C44BF
:108C3000634510D3012030BD93F802E00EF00F021F
:108C40004FEADE1E01EB420202F80E0093F800E04C
:108C500073449C45EED993F800E09E44F445E9D373
:108C600093F801E0BEF1050FE6D0BEF1040FEDD19F
:108C700093F803E0BEF1000FE8D193F802E0A645B7
:108C800002D205F80E00E1E74FF0E023D3F8F03D03
:108C900013F0010F00D000BE0020CCE710B5044651
:108CA0000298BDF80C2000B10AB9002010BD617017
:108CB000014604F10C0000F005F9049BA3600120BB
:108CC000F4E7828AC38A9A421BD110B5044619B1CF
:108CD0008388013B0B4201D0002010BDFFF732FF1B
:108CE0000028FAD000212046FFF739FF0028F4D1F0
:108CF0004FF0E023D3F8F03D13F0010FEDD000BEAC
:108D0000EBE70020704738B50446838AC18A028A9F
:108D10008B42AEBF5B1AC1EB42015B189BB29A4219
:108D200028BF1A460AB9002038BDFFF70BFF0028FC
:108D3000F9D0A168A9B10023E28804F10C0000F089
:108D4000B2F905462946EDB12046FFF708FFB8B94C
:108D50004FF0E023D3F8F00D10F00100E4D000BE96
:108D6000E1E7A38AE28A208A9342AEBF9B1AC2EB54
:108D700040029B189BB2984228BF18460546E1E77F
:108D80002846D1E76378002BCDD1A178207800F078
:108D9000D9FCC8E738B50446104602B938BD0023EF
:108DA00092B204F10C0000F095F90546A38AE28A1C
:108DB000218A9342AEBF9B1AC2EB41029B189BB221
:108DC000A2888B4228BF0B469A4201D98A4202D917
:108DD0002046FFF798FF2846E0E7838AC28A008A88
:108DE0009342AEBF9B1AC2EB40029B189BB29842C3
:108DF00086BFC01A80B20020704738B50446838A07
:108E0000C18A028A8B42AEBF5B1AC1EB42015B187A
:108E10009BB29A4286BFD21A92B2002283889342B2
:108E200001D9002038BDFFF78DFE0028F9D0A28AB5
:108E3000E18A238A8A42AEBF521AC1EB430152181B
:108E400092B2934286BF9B1A9BB20023A2889A4299
:108E500017D8524203EA0200E388984228BF184616
:108E6000014605462046FFF77AFE40B94FF0E02361
:108E7000D3F8F00D10F00100D4D000BED1E72846A1
:108E8000D0E76378002BCCD1A178207800F05AFC91
:108E9000C7E738B50446002392B20C3000F003F95E
:108EA00005462046FFF7A9FF284638BD03460A4479
:108EB00090B2814202D8B0EB430F02DBA0EB43003B
:108EC00080B27047B2F5004F07D80160828083718D
:108ED0000023438103810120704700207047002355
:108EE00043810381704710B582B004467BB193F88B
:108EF00000C06346624507D3088824F8040B614428
:108F0000D21A92B29A42F7D222B902B010BD4FF0F3
:108F1000020CEEE70023019301A802F0B7FBBDF8B5
:108F200004302380F1E700B583B0844608467BB166
:108F300093F800E07346724507D33CF8041B0180A8
:108F40007044D21A92B29A42F7D222B903B000BD4D
:108F50004FF0020EEEE7BCF80030ADF8043001A986
:108F600002F094FBF2E72DE9F04F83B00546084686
:108F7000BDF83060AF88B342A3EB0604B8BF04EB82
:108F80004704A4B2BCB1A74219D3944228BF1446E7
:108F9000B74203D8F61BB6B2B742FBD90D9B002BE4
:108FA00069D0BB1B9AB22B68991994420FD80D9BBC
:108FB0002246FFF798FF204603B0BDE8F08F9F429E
:108FC00094BFDB1BDB199EB26E813C46DDE7E71BDD
:108FD00037441FFA87FB0D9B1F787B42904602EABD
:108FE00003060D9B32468A468146FFF77CFF09EB5C
:108FF0004603994618467A1E43461A4012F0FF026D
:1090000037D0B91A89B2594528BF5946C8B2534614
:10901000334401AF03EB020E3E4613F801CB06F8D2
:1090200001CB7345F9D168B1D5F800C00CF1FF331D
:10903000BE180138C0B2604413F8017F06F8017B06
:109040008342F9D1CEB20D9B324401A94846FFF7C5
:109050004AFF484604305B469B1B9BB29B462968EF
:1090600031445B46002BA6D00D9B5A46FFF73BFFD1
:10907000A1E72968F5E7BB1B9BB2296831449C42F4
:1090800003D8224602F002FB95E799461A4680462D
:1090900002F0FCFAE71BF21992B2296840464844F4
:1090A00002F0F4FA87E730B583B004469E460389A0
:1090B000B0F80AC0CDF804E0CDF800C0FFF753FFC8
:1090C000054602466189A088FFF7F0FE60812846C8
:1090D00003B030BD2DE9F04F87B000931746002A4A
:1090E00000F0CA8005468B46B0F808804189837934
:1090F000002B31D183888845AEBFA8EB0101C1EBBD
:109100004301414489B28B4240F2BA805B1A9BB260
:10911000934228BF13469FB2AE8846453FD8444687
:10912000A41BA4B2A642FBD9009A002A00F08B80AF
:10913000331B98B22B6819190191B84231D31346E9
:109140003A465846FFF7EFFE3A464146A888FFF7F1
:10915000ADFE2881384690E0808890420DD8171ADD
:109160005B465F44009A002A08BF3B469B460028A6
:1091700000F0838088460746CEE78845AEBFA8EB5F
:109180000103C1EB400343449BB21344B3EB400FD4
:10919000C2DB821A92B2FFF789FE8046BCE74446E2
:1091A000C2E7BE1B2644B6B200990C7863428246E1
:1091B00000EA0309CDF80C900B464A46019958463F
:1091C000FFF7B1FE0BEB49039C461846631E52465F
:1091D000134013F0FF03029307D12968002EB3D088
:1091E000009B3246FFF79FFEAEE71A46E31A9BB29A
:1091F000B34228BF3346DCB2A246009B224405A9F5
:10920000E146FFF790FE4846043005A9019BDDF8D2
:109210000CC06344029A8A1811F801CB03F801CB01
:109220009142F9D14CB1002312F801CB296801F821
:1092300003C00133D9B28C42F6D85246B31A9EB25B
:1092400029685144CAE7331B9BB228682044BB42BB
:1092500004D33A46594602F019FA75E79A461A4677
:10926000594602F013FABE1BA21992B25946514454
:10927000286802F00BFA67E7104607B0BDE8F08FE8
:109280000020FAE708B54B6902490B6101219847B4
:1092900008BD00BF78230020F8B5204B1B78FF2BBA
:1092A00022D0054600241E4F1C4E0BE013D11D4B4F
:1092B000DB6828469847337801345A1CD2B2E1B2B1
:1092C0008A4211D9E2B29A42F0D204EBC4023B685E
:1092D00013EB8203ECD14FF0E023D3F8F03D13F011
:1092E000010F00D000BEF8BD0F4C4C2200212046DB
:1092F00002F0A0F94FF0FF33C4F81B30C4F81F3060
:10930000C4F82330C4F82730C4F82B30C4F82F3009
:10931000C4F83330C4F83730E5E700BF2C23002011
:109320003023002018B800087823002008B520B1A9
:10933000044B187801F0E6FC08BD024B187801F0E8
:10934000EFFCF9E71C0000207047704700207047D1
:109350000020704770477047704703460020187020
:1093600070470000024B187E003818BF012070477C
:1093700078230020F8B5364B1B78FF2B65D10646C5
:109380000F46D1B14C220021324802F053F9324B42
:1093900000221A70314C2046FFF7A1FD083C304BEB
:1093A0001C60304C2046FFF7D8FF2F4B1860237805
:1093B000FF2B0BD000252C461DE04FF0E023D3F807
:1093C000F03D13F0010F28D000BE26E04FF0E0235F
:1093D000D3F8F03D13F0010F1FD000BE1DE014D1F3
:1093E000224B98471F4B1B78013424355A1CD2B2AC
:1093F000E1B28A4214D9E2B29A42F0D21A4B1B6807
:109400005B1902D05B68002BEBD14FF0E023D3F85F
:10941000F03D13F0010F00D000BE00242046F8BD3F
:109420000B4B1E703946304601F0E2F8044640B955
:109430004FF0E023D3F8F03D13F0010FEED000BE63
:10944000ECE7304601F05EFCE8E70124E6E700BF08
:109450001C0000207823002074230020100000202E
:10946000682200202C23002030230020B54900086A
:10947000F0B585B004460F464378023B052B14D85F
:10948000DFE813F00D00060033003C00C100C60009
:109490008D4B1A78FF2A51D000258B4E43E08B4B21
:1094A00000221A755A751A769A75894B1E68002F14
:1094B00040F0EF803368002098470023B2882146AF
:1094C00006F10800FFF706FE0546336801209847BD
:1094D000002D40F0D7804FF0E023D3F8F03D13F09B
:1094E000010F00F0D48000BED1E0784B1B7D002B33
:1094F00000F0CD80754B01229A75D6E7734B1B7D2A
:10950000002B00F0C480714B00229A75CDE7136ADE
:1095100013B161682078984732780135531CDBB26B
:10952000E9B28B420AD9EBB29342F5D205EBC503FF
:10953000684A126812EB8302E9D1EDE7634B9B7D29
:10954000002B2FD00023614A93750193029303935C
:1095500023788DF8043005238DF805305C4B1E68A8
:10956000002F40F0A8803368002098470023B2887D
:1095700001A906F10800FFF7ADFD0546336801209B
:10958000984745B94FF0E023D3F8F03D13F0010FB1
:1095900008D000BE06E03A469DF805109DF804008C
:1095A000FFF7D2FE494B9B7E13F0010F6FD023785B
:1095B0008DF8043003238DF8053063680293444B23
:1095C0001D68002F6ED12B68002098470023AA88C1
:1095D00001A905F10800FFF77DFD04462B68012075
:1095E000984744B94FF0E023D3F8F03D13F0010F52
:1095F0004DD000BE4BE03A469DF805109DF80400A2
:10960000FFF7A2FE43E0344A1378013313704CE7AE
:10961000017911F00F053FF448AFCE092B4B03EB56
:10962000450303EBD11393F82B30274A12789A4263
:109630007FF63BAF03EBC303264A126812EB8302AB
:109640003FF433AFD369002B3FF42FAF1F4B03EB35
:109650004503334493F83B0000F0FA0083F83B00E5
:10966000D3699C46A36862792078E04778B9174BA4
:1096700003EB4503334493F83B2042F0050283F8A3
:109680003B2012E73A4661782078FFF75DFE05B08F
:10969000F0BD0023B288214606F10800FFF71AFD4D
:1096A000054615E70023AA8801A905F10800FFF780
:1096B00011FD044695E70023B28801A906F10800D0
:1096C000FFF708FD05465CE72C23002078230020E7
:1096D00068220020302300207423002008B58B78F6
:1096E00013F0080F0CD18B88C3F30A0393B94FF022
:1096F000E023D3F8F03D13F0010F09D000BE07E0DE
:109700004FF0E023D3F8F03D13F0010F00D000BE7E
:10971000002008BD024B187801F094F9F9E700BF6A
:109720001C00002008B501F00F02CB093B3303EB0E
:109730004203002102481844FFF754FA08BD00BF55
:109740007823002008B501F00F02CB093B3303EB6F
:109750004203002102481844FFF754FA08BD00BF35
:109760007823002030B583B001F00F04C809054606
:109770001D4800EB440000EBD11090F83B0010F0C6
:10978000010F0AD04FF0E023D3F8F03D13F0010FA2
:1097900000D000BE002003B030BD134800EB4400F1
:1097A000284490F83BC04CF0010C80F83BC09DF879
:1097B000180000900D48007801F0C6F90028EAD1A1
:1097C000094B03EB44032B4493F83B2002F0FA02CD
:1097D00083F83B204FF0E023D3F8F03D13F0010F66
:1097E000D9D000BED7E700BF782300201C0000209E
:1097F00000B583B0084BDB8863B1074B197881F063
:10980000FF0101F08001002200921346FFF7AAFF3A
:1098100003B000BD8021F6E77823002030B583B087
:109820000546194B9989DA898C1AA4B2402C28BFB5
:10983000402493F90030002B0CDB914221D0002111
:10984000124800230093234602462846FFF78AFF6A
:1098500003B030BD91420FD00B4B98680B4B984230
:109860000DD034B10028F3D022460146074801F05C
:109870000DFF80210548E4E780210020E1E78021F9
:10988000DFE700210846DCE77823002034230020AE
:1098900000B583B01B498A60B1F806C0634528BF94
:1098A00063468B81BCF1000F19D003B122B1FFF7E1
:1098B000B5FF58B103B000BD4FF0E023D3F8F03D41
:1098C00013F0010F00D000BE0020F3E74FF0E023BB
:1098D000D3F8F03D13F0010FECD000BEEAE762468A
:1098E000CDF800C063468021FFF73CFF0028E1D19E
:1098F0004FF0E023D3F8F03D13F0010FDAD000BEB3
:10990000D8E700BF7823002030B583B001F00F0402
:10991000C80905461D4800EB440000EBD11090F843
:109920003B0010F0010F0AD04FF0E023D3F8F03DD8
:1099300013F0010F00D000BE002003B030BD13486B
:1099400000EB4400284490F83BC04CF0010C80F838
:109950003BC09DF8180000900D48007801F01CF9FC
:109960000028EAD1094B03EB44032B4493F83B2036
:1099700002F0FA0283F83B204FF0E023D3F8F03DE9
:1099800013F0010FD9D000BED7E700BF7823002025
:109990001C00002001F00F02044B03EB420303EB19
:1099A000D11191F83B0000F00100704778230020AE
:1099B00010B50C46084B187801F00CF904F00F02B2
:1099C000064B03EB420303EBD41191F83B3043F019
:1099D000030381F83B3010BD1C00002078230020D9
:1099E00010B50C46084B187801F03EF904F00F0250
:1099F000064B03EB420303EBD41191F83B3003F029
:109A0000FC0381F83B3010BD1C00002078230020AF
:109A100001F00F02044B03EB420303EBD11191F869
:109A20003B00C0F34000704778230020AE4B1B780A
:109A3000FF2B00F02C842DE9F04F8BB01024AB4E9F
:109A40000025AB4F09E09DF81C00FFF725FC9DF8B1
:109A500020307B76013C00F0E383D6F80080D8F814
:109A60000030284698472B46B8F8042007A908F18B
:109A70000800FFF718FB8146D8F80030012098470E
:109A8000B9F1000F00F0CC839DF81D30013B072B8E
:109A900000F2ED8301A252F823F000BF479A0008BC
:109AA000BD9A00085BA2000827A200083DA200089A
:109AB000CB9A000895A000084BA200089DF81C0056
:109AC000FFF7EAFBFAF70CFCC4E78A4B1B78002B84
:109AD000C0D0884B1A78013A1A701B78002BB9D184
:109AE000834B01221A75002283F83B2083F83C2027
:109AF0009DF81C900AA911E9030083E803009A600D
:109B0000DA819A811A611B7803F06003602B21D0FF
:109B1000402B32D0764A127802F01F02012A00F060
:109B2000EE81022A00F02A82002A40F0A782202B30
:109B30002ED06F4B5B78092B00F2D781DFE813F052
:109B4000CA01BC01D501AE01D50144003E01D501D9
:109B50004F005A004FF0E023D3F8F03D13F0010F0F
:109B600000D000BE00219DF81C0001F033F88021D8
:109B70009DF81C0001F02EF86CE75D4A5E4B136106
:109B800001214846FAF74CFE00287FF463AFE9E76D
:109B9000574B9B88DAB20F2AE4D81346544A134431
:109BA000DB7E564A1278934207D203EBC303544A32
:109BB000116811EB830102D1D4E7D3D151494C4A4A
:109BC0004846FFF75FFBDFE7DFF8248198F80210D3
